{
  "_format": "hh-sol-artifact-1",
  "contractName": "ClothingStore",
  "sourceName": "contracts/ClothingStore.sol",
  "abi": [
    {
      "inputs": [],
      "stateMutability": "nonpayable",
      "type": "constructor"
    },
    {
      "inputs": [
        {
          "internalType": "address",
          "name": "sender",
          "type": "address"
        },
        {
          "internalType": "uint256",
          "name": "balance",
          "type": "uint256"
        },
        {
          "internalType": "uint256",
          "name": "needed",
          "type": "uint256"
        },
        {
          "internalType": "uint256",
          "name": "tokenId",
          "type": "uint256"
        }
      ],
      "name": "ERC1155InsufficientBalance",
      "type": "error"
    },
    {
      "inputs": [
        {
          "internalType": "address",
          "name": "approver",
          "type": "address"
        }
      ],
      "name": "ERC1155InvalidApprover",
      "type": "error"
    },
    {
      "inputs": [
        {
          "internalType": "uint256",
          "name": "idsLength",
          "type": "uint256"
        },
        {
          "internalType": "uint256",
          "name": "valuesLength",
          "type": "uint256"
        }
      ],
      "name": "ERC1155InvalidArrayLength",
      "type": "error"
    },
    {
      "inputs": [
        {
          "internalType": "address",
          "name": "operator",
          "type": "address"
        }
      ],
      "name": "ERC1155InvalidOperator",
      "type": "error"
    },
    {
      "inputs": [
        {
          "internalType": "address",
          "name": "receiver",
          "type": "address"
        }
      ],
      "name": "ERC1155InvalidReceiver",
      "type": "error"
    },
    {
      "inputs": [
        {
          "internalType": "address",
          "name": "sender",
          "type": "address"
        }
      ],
      "name": "ERC1155InvalidSender",
      "type": "error"
    },
    {
      "inputs": [
        {
          "internalType": "address",
          "name": "operator",
          "type": "address"
        },
        {
          "internalType": "address",
          "name": "owner",
          "type": "address"
        }
      ],
      "name": "ERC1155MissingApprovalForAll",
      "type": "error"
    },
    {
      "inputs": [
        {
          "internalType": "address",
          "name": "owner",
          "type": "address"
        }
      ],
      "name": "OwnableInvalidOwner",
      "type": "error"
    },
    {
      "inputs": [
        {
          "internalType": "address",
          "name": "account",
          "type": "address"
        }
      ],
      "name": "OwnableUnauthorizedAccount",
      "type": "error"
    },
    {
      "anonymous": false,
      "inputs": [
        {
          "indexed": true,
          "internalType": "address",
          "name": "account",
          "type": "address"
        },
        {
          "indexed": true,
          "internalType": "address",
          "name": "operator",
          "type": "address"
        },
        {
          "indexed": false,
          "internalType": "bool",
          "name": "approved",
          "type": "bool"
        }
      ],
      "name": "ApprovalForAll",
      "type": "event"
    },
    {
      "anonymous": false,
      "inputs": [
        {
          "indexed": true,
          "internalType": "uint256",
          "name": "tokenId",
          "type": "uint256"
        },
        {
          "indexed": true,
          "internalType": "address",
          "name": "buyer",
          "type": "address"
        },
        {
          "indexed": true,
          "internalType": "address",
          "name": "seller",
          "type": "address"
        },
        {
          "indexed": false,
          "internalType": "uint256",
          "name": "price",
          "type": "uint256"
        }
      ],
      "name": "DesignBought",
      "type": "event"
    },
    {
      "anonymous": false,
      "inputs": [
        {
          "indexed": true,
          "internalType": "uint256",
          "name": "tokenId",
          "type": "uint256"
        },
        {
          "indexed": true,
          "internalType": "address",
          "name": "creator",
          "type": "address"
        },
        {
          "indexed": false,
          "internalType": "string",
          "name": "name",
          "type": "string"
        },
        {
          "indexed": false,
          "internalType": "string",
          "name": "category",
          "type": "string"
        },
        {
          "indexed": false,
          "internalType": "uint256",
          "name": "price",
          "type": "uint256"
        },
        {
          "indexed": false,
          "internalType": "uint256",
          "name": "amount",
          "type": "uint256"
        },
        {
          "indexed": false,
          "internalType": "uint256",
          "name": "royalty",
          "type": "uint256"
        },
        {
          "indexed": false,
          "internalType": "string",
          "name": "imageURI",
          "type": "string"
        }
      ],
      "name": "DesignUploaded",
      "type": "event"
    },
    {
      "anonymous": false,
      "inputs": [
        {
          "indexed": true,
          "internalType": "address",
          "name": "previousOwner",
          "type": "address"
        },
        {
          "indexed": true,
          "internalType": "address",
          "name": "newOwner",
          "type": "address"
        }
      ],
      "name": "OwnershipTransferred",
      "type": "event"
    },
    {
      "anonymous": false,
      "inputs": [
        {
          "indexed": true,
          "internalType": "address",
          "name": "operator",
          "type": "address"
        },
        {
          "indexed": true,
          "internalType": "address",
          "name": "from",
          "type": "address"
        },
        {
          "indexed": true,
          "internalType": "address",
          "name": "to",
          "type": "address"
        },
        {
          "indexed": false,
          "internalType": "uint256[]",
          "name": "ids",
          "type": "uint256[]"
        },
        {
          "indexed": false,
          "internalType": "uint256[]",
          "name": "values",
          "type": "uint256[]"
        }
      ],
      "name": "TransferBatch",
      "type": "event"
    },
    {
      "anonymous": false,
      "inputs": [
        {
          "indexed": true,
          "internalType": "address",
          "name": "operator",
          "type": "address"
        },
        {
          "indexed": true,
          "internalType": "address",
          "name": "from",
          "type": "address"
        },
        {
          "indexed": true,
          "internalType": "address",
          "name": "to",
          "type": "address"
        },
        {
          "indexed": false,
          "internalType": "uint256",
          "name": "id",
          "type": "uint256"
        },
        {
          "indexed": false,
          "internalType": "uint256",
          "name": "value",
          "type": "uint256"
        }
      ],
      "name": "TransferSingle",
      "type": "event"
    },
    {
      "anonymous": false,
      "inputs": [
        {
          "indexed": false,
          "internalType": "string",
          "name": "value",
          "type": "string"
        },
        {
          "indexed": true,
          "internalType": "uint256",
          "name": "id",
          "type": "uint256"
        }
      ],
      "name": "URI",
      "type": "event"
    },
    {
      "inputs": [
        {
          "internalType": "address",
          "name": "account",
          "type": "address"
        },
        {
          "internalType": "uint256",
          "name": "id",
          "type": "uint256"
        }
      ],
      "name": "balanceOf",
      "outputs": [
        {
          "internalType": "uint256",
          "name": "",
          "type": "uint256"
        }
      ],
      "stateMutability": "view",
      "type": "function"
    },
    {
      "inputs": [
        {
          "internalType": "address[]",
          "name": "accounts",
          "type": "address[]"
        },
        {
          "internalType": "uint256[]",
          "name": "ids",
          "type": "uint256[]"
        }
      ],
      "name": "balanceOfBatch",
      "outputs": [
        {
          "internalType": "uint256[]",
          "name": "",
          "type": "uint256[]"
        }
      ],
      "stateMutability": "view",
      "type": "function"
    },
    {
      "inputs": [
        {
          "internalType": "uint256",
          "name": "_tokenId",
          "type": "uint256"
        },
        {
          "internalType": "uint256",
          "name": "_amount",
          "type": "uint256"
        }
      ],
      "name": "buyDesign",
      "outputs": [],
      "stateMutability": "payable",
      "type": "function"
    },
    {
      "inputs": [
        {
          "internalType": "uint256",
          "name": "",
          "type": "uint256"
        }
      ],
      "name": "designs",
      "outputs": [
        {
          "internalType": "uint256",
          "name": "tokenId",
          "type": "uint256"
        },
        {
          "internalType": "string",
          "name": "name",
          "type": "string"
        },
        {
          "internalType": "string",
          "name": "category",
          "type": "string"
        },
        {
          "internalType": "address payable",
          "name": "creator",
          "type": "address"
        },
        {
          "internalType": "uint256",
          "name": "price",
          "type": "uint256"
        },
        {
          "internalType": "uint256",
          "name": "royalty",
          "type": "uint256"
        },
        {
          "internalType": "bool",
          "name": "isListed",
          "type": "bool"
        },
        {
          "internalType": "string",
          "name": "imageURI",
          "type": "string"
        }
      ],
      "stateMutability": "view",
      "type": "function"
    },
    {
      "inputs": [
        {
          "internalType": "address",
          "name": "account",
          "type": "address"
        },
        {
          "internalType": "address",
          "name": "operator",
          "type": "address"
        }
      ],
      "name": "isApprovedForAll",
      "outputs": [
        {
          "internalType": "bool",
          "name": "",
          "type": "bool"
        }
      ],
      "stateMutability": "view",
      "type": "function"
    },
    {
      "inputs": [],
      "name": "listingFee",
      "outputs": [
        {
          "internalType": "uint256",
          "name": "",
          "type": "uint256"
        }
      ],
      "stateMutability": "view",
      "type": "function"
    },
    {
      "inputs": [],
      "name": "myPersonalWardrobe",
      "outputs": [
        {
          "components": [
            {
              "internalType": "uint256",
              "name": "tokenId",
              "type": "uint256"
            },
            {
              "internalType": "string",
              "name": "name",
              "type": "string"
            },
            {
              "internalType": "string",
              "name": "category",
              "type": "string"
            },
            {
              "internalType": "address payable",
              "name": "creator",
              "type": "address"
            },
            {
              "internalType": "uint256",
              "name": "price",
              "type": "uint256"
            },
            {
              "internalType": "uint256",
              "name": "royalty",
              "type": "uint256"
            },
            {
              "internalType": "bool",
              "name": "isListed",
              "type": "bool"
            },
            {
              "internalType": "string",
              "name": "imageURI",
              "type": "string"
            }
          ],
          "internalType": "struct ClothingStore.Design[]",
          "name": "",
          "type": "tuple[]"
        }
      ],
      "stateMutability": "view",
      "type": "function"
    },
    {
      "inputs": [],
      "name": "nextTokenId",
      "outputs": [
        {
          "internalType": "uint256",
          "name": "",
          "type": "uint256"
        }
      ],
      "stateMutability": "view",
      "type": "function"
    },
    {
      "inputs": [
        {
          "internalType": "address",
          "name": "",
          "type": "address"
        },
        {
          "internalType": "uint256",
          "name": "",
          "type": "uint256"
        }
      ],
      "name": "ownedDesigns",
      "outputs": [
        {
          "internalType": "uint256",
          "name": "",
          "type": "uint256"
        }
      ],
      "stateMutability": "view",
      "type": "function"
    },
    {
      "inputs": [],
      "name": "owner",
      "outputs": [
        {
          "internalType": "address",
          "name": "",
          "type": "address"
        }
      ],
      "stateMutability": "view",
      "type": "function"
    },
    {
      "inputs": [
        {
          "internalType": "uint256",
          "name": "",
          "type": "uint256"
        }
      ],
      "name": "productCategories",
      "outputs": [
        {
          "internalType": "string",
          "name": "",
          "type": "string"
        }
      ],
      "stateMutability": "view",
      "type": "function"
    },
    {
      "inputs": [],
      "name": "renounceOwnership",
      "outputs": [],
      "stateMutability": "nonpayable",
      "type": "function"
    },
    {
      "inputs": [
        {
          "internalType": "address",
          "name": "from",
          "type": "address"
        },
        {
          "internalType": "address",
          "name": "to",
          "type": "address"
        },
        {
          "internalType": "uint256[]",
          "name": "ids",
          "type": "uint256[]"
        },
        {
          "internalType": "uint256[]",
          "name": "values",
          "type": "uint256[]"
        },
        {
          "internalType": "bytes",
          "name": "data",
          "type": "bytes"
        }
      ],
      "name": "safeBatchTransferFrom",
      "outputs": [],
      "stateMutability": "nonpayable",
      "type": "function"
    },
    {
      "inputs": [
        {
          "internalType": "address",
          "name": "from",
          "type": "address"
        },
        {
          "internalType": "address",
          "name": "to",
          "type": "address"
        },
        {
          "internalType": "uint256",
          "name": "id",
          "type": "uint256"
        },
        {
          "internalType": "uint256",
          "name": "value",
          "type": "uint256"
        },
        {
          "internalType": "bytes",
          "name": "data",
          "type": "bytes"
        }
      ],
      "name": "safeTransferFrom",
      "outputs": [],
      "stateMutability": "nonpayable",
      "type": "function"
    },
    {
      "inputs": [
        {
          "internalType": "address",
          "name": "operator",
          "type": "address"
        },
        {
          "internalType": "bool",
          "name": "approved",
          "type": "bool"
        }
      ],
      "name": "setApprovalForAll",
      "outputs": [],
      "stateMutability": "nonpayable",
      "type": "function"
    },
    {
      "inputs": [
        {
          "internalType": "bytes4",
          "name": "interfaceId",
          "type": "bytes4"
        }
      ],
      "name": "supportsInterface",
      "outputs": [
        {
          "internalType": "bool",
          "name": "",
          "type": "bool"
        }
      ],
      "stateMutability": "view",
      "type": "function"
    },
    {
      "inputs": [
        {
          "internalType": "address",
          "name": "newOwner",
          "type": "address"
        }
      ],
      "name": "transferOwnership",
      "outputs": [],
      "stateMutability": "nonpayable",
      "type": "function"
    },
    {
      "inputs": [
        {
          "internalType": "string",
          "name": "_name",
          "type": "string"
        },
        {
          "internalType": "string",
          "name": "_category",
          "type": "string"
        },
        {
          "internalType": "uint256",
          "name": "_price",
          "type": "uint256"
        },
        {
          "internalType": "uint256",
          "name": "_amount",
          "type": "uint256"
        },
        {
          "internalType": "uint256",
          "name": "_royalty",
          "type": "uint256"
        },
        {
          "internalType": "string",
          "name": "_imageURI",
          "type": "string"
        }
      ],
      "name": "uploadDesign",
      "outputs": [],
      "stateMutability": "payable",
      "type": "function"
    },
    {
      "inputs": [
        {
          "internalType": "uint256",
          "name": "",
          "type": "uint256"
        }
      ],
      "name": "uri",
      "outputs": [
        {
          "internalType": "string",
          "name": "",
          "type": "string"
        }
      ],
      "stateMutability": "view",
      "type": "function"
    },
    {
      "inputs": [],
      "name": "withdraw",
      "outputs": [],
      "stateMutability": "nonpayable",
      "type": "function"
    }
  ],
  "bytecode": "0x6080604052662386f26fc100006005553480156200001c57600080fd5b5033604051806020016040528060008152506200003f81620000cd60201b60201c565b50600073ffffffffffffffffffffffffffffffffffffffff168173ffffffffffffffffffffffffffffffffffffffff1603620000b55760006040517f1e4fbdf7000000000000000000000000000000000000000000000000000000008152600401620000ac9190620001ed565b60405180910390fd5b620000c681620000e260201b60201c565b506200056b565b8060029081620000de919062000484565b5050565b6000600360009054906101000a900473ffffffffffffffffffffffffffffffffffffffff16905081600360006101000a81548173ffffffffffffffffffffffffffffffffffffffff021916908373ffffffffffffffffffffffffffffffffffffffff1602179055508173ffffffffffffffffffffffffffffffffffffffff168173ffffffffffffffffffffffffffffffffffffffff167f8be0079c531659141344cd1fd0a4f28419497f9722a3daafe3b4186f6b6457e060405160405180910390a35050565b600073ffffffffffffffffffffffffffffffffffffffff82169050919050565b6000620001d582620001a8565b9050919050565b620001e781620001c8565b82525050565b6000602082019050620002046000830184620001dc565b92915050565b600081519050919050565b7f4e487b7100000000000000000000000000000000000000000000000000000000600052604160045260246000fd5b7f4e487b7100000000000000000000000000000000000000000000000000000000600052602260045260246000fd5b600060028204905060018216806200028c57607f821691505b602082108103620002a257620002a162000244565b5b50919050565b60008190508160005260206000209050919050565b60006020601f8301049050919050565b600082821b905092915050565b6000600883026200030c7fffffffffffffffffffffffffffffffffffffffffffffffffffffffffffffffff82620002cd565b620003188683620002cd565b95508019841693508086168417925050509392505050565b6000819050919050565b6000819050919050565b6000620003656200035f620003598462000330565b6200033a565b62000330565b9050919050565b6000819050919050565b620003818362000344565b6200039962000390826200036c565b848454620002da565b825550505050565b600090565b620003b0620003a1565b620003bd81848462000376565b505050565b5b81811015620003e557620003d9600082620003a6565b600181019050620003c3565b5050565b601f8211156200043457620003fe81620002a8565b6200040984620002bd565b8101602085101562000419578190505b620004316200042885620002bd565b830182620003c2565b50505b505050565b600082821c905092915050565b6000620004596000198460080262000439565b1980831691505092915050565b600062000474838362000446565b9150826002028217905092915050565b6200048f826200020a565b67ffffffffffffffff811115620004ab57620004aa62000215565b5b620004b7825462000273565b620004c4828285620003e9565b600060209050601f831160018114620004fc5760008415620004e7578287015190505b620004f3858262000466565b86555062000563565b601f1984166200050c86620002a8565b60005b8281101562000536578489015182556001820191506020850194506020810190506200050f565b8683101562000556578489015162000552601f89168262000446565b8355505b6001600288020188555050505b505050505050565b613cbf806200057b6000396000f3fe60806040526004361061011e5760003560e01c806375794a3c116100a0578063c555f67011610064578063c555f670146103f2578063e985e9c51461040e578063eb3d3e4b1461044b578063f242432a14610476578063f2fde38b1461049f5761011e565b806375794a3c146102f257806377ecc8721461031d5780638da5cb5b1461035a57806390ac11a314610385578063a22cb465146103c95761011e565b80633ccfd60b116100e75780633ccfd60b1461021f5780634e1273f414610236578063540f1c3c146102735780636a1b7ecc146102b0578063715018a6146102db5761011e565b8062fdd58e1461012357806301ffc9a7146101605780630e89341c1461019d57806325b26494146101da5780632eb2c2d6146101f6575b600080fd5b34801561012f57600080fd5b5061014a60048036038101906101459190612617565b6104c8565b6040516101579190612666565b60405180910390f35b34801561016c57600080fd5b50610187600480360381019061018291906126d9565b610522565b6040516101949190612721565b60405180910390f35b3480156101a957600080fd5b506101c460048036038101906101bf919061273c565b610604565b6040516101d191906127f9565b60405180910390f35b6101f460048036038101906101ef919061281b565b610698565b005b34801561020257600080fd5b5061021d60048036038101906102189190612a58565b6109f0565b005b34801561022b57600080fd5b50610234610a98565b005b34801561024257600080fd5b5061025d60048036038101906102589190612bea565b610b39565b60405161026a9190612d20565b60405180910390f35b34801561027f57600080fd5b5061029a6004803603810190610295919061273c565b610c48565b6040516102a791906127f9565b60405180910390f35b3480156102bc57600080fd5b506102c5610ce8565b6040516102d29190612666565b60405180910390f35b3480156102e757600080fd5b506102f0610cee565b005b3480156102fe57600080fd5b50610307610d02565b6040516103149190612666565b60405180910390f35b34801561032957600080fd5b50610344600480360381019061033f9190612617565b610d08565b6040516103519190612666565b60405180910390f35b34801561036657600080fd5b5061036f610d39565b60405161037c9190612d51565b60405180910390f35b34801561039157600080fd5b506103ac60048036038101906103a7919061273c565b610d63565b6040516103c0989796959493929190612d8d565b60405180910390f35b3480156103d557600080fd5b506103f060048036038101906103eb9190612e4c565b610f70565b005b61040c60048036038101906104079190612f2d565b610f86565b005b34801561041a57600080fd5b506104356004803603810190610430919061300e565b6111b4565b6040516104429190612721565b60405180910390f35b34801561045757600080fd5b50610460611248565b60405161046d9190613236565b60405180910390f35b34801561048257600080fd5b5061049d60048036038101906104989190613258565b6115f9565b005b3480156104ab57600080fd5b506104c660048036038101906104c191906132ef565b6116a1565b005b600080600083815260200190815260200160002060008473ffffffffffffffffffffffffffffffffffffffff1673ffffffffffffffffffffffffffffffffffffffff16815260200190815260200160002054905092915050565b60007fd9b67a26000000000000000000000000000000000000000000000000000000007bffffffffffffffffffffffffffffffffffffffffffffffffffffffff1916827bffffffffffffffffffffffffffffffffffffffffffffffffffffffff191614806105ed57507f0e89341c000000000000000000000000000000000000000000000000000000007bffffffffffffffffffffffffffffffffffffffffffffffffffffffff1916827bffffffffffffffffffffffffffffffffffffffffffffffffffffffff1916145b806105fd57506105fc82611727565b5b9050919050565b6060600280546106139061334b565b80601f016020809104026020016040519081016040528092919081815260200182805461063f9061334b565b801561068c5780601f106106615761010080835404028352916020019161068c565b820191906000526020600020905b81548152906001019060200180831161066f57829003601f168201915b50505050509050919050565b60006007600084815260200190815260200160002090508060060160009054906101000a900460ff16610700576040517f08c379a00000000000000000000000000000000000000000000000000000000081526004016106f7906133c8565b60405180910390fd5b8181600401546107109190613417565b341015610752576040517f08c379a0000000000000000000000000000000000000000000000000000000008152600401610749906134a5565b60405180910390fd5b816107818260030160009054906101000a900473ffffffffffffffffffffffffffffffffffffffff16856104c8565b10156107c2576040517f08c379a00000000000000000000000000000000000000000000000000000000081526004016107b990613511565b60405180910390fd5b60008160030160009054906101000a900473ffffffffffffffffffffffffffffffffffffffff1690506108078133868660405180602001604052806000815250611791565b600061081382866104c8565b118260060160006101000a81548160ff021916908315150217905550600060648360050154346108439190613417565b61084d9190613560565b90506000813461085d9190613591565b90508360030160009054906101000a900473ffffffffffffffffffffffffffffffffffffffff1673ffffffffffffffffffffffffffffffffffffffff166108fc839081150290604051600060405180830381858888f193505050501580156108c9573d6000803e3d6000fd5b506108d2610d39565b73ffffffffffffffffffffffffffffffffffffffff166108fc829081150290604051600060405180830381858888f19350505050158015610917573d6000803e3d6000fd5b50600860003373ffffffffffffffffffffffffffffffffffffffff1673ffffffffffffffffffffffffffffffffffffffff1681526020019081526020016000208690806001815401808255809150506001900390600052602060002001600090919091909150558273ffffffffffffffffffffffffffffffffffffffff163373ffffffffffffffffffffffffffffffffffffffff16877f6df4ffda30909c98dd5f5f6f4c356135eafad3f7bb9690f154d78078bb359b4187600401546040516109e09190612666565b60405180910390a4505050505050565b60006109fa61189c565b90508073ffffffffffffffffffffffffffffffffffffffff168673ffffffffffffffffffffffffffffffffffffffff1614158015610a3f5750610a3d86826111b4565b155b15610a835780866040517fe237d922000000000000000000000000000000000000000000000000000000008152600401610a7a9291906135c5565b60405180910390fd5b610a9086868686866118a4565b505050505050565b610aa061199c565b600047905060008111610ae8576040517f08c379a0000000000000000000000000000000000000000000000000000000008152600401610adf90613660565b60405180910390fd5b610af0610d39565b73ffffffffffffffffffffffffffffffffffffffff166108fc829081150290604051600060405180830381858888f19350505050158015610b35573d6000803e3d6000fd5b5050565b60608151835114610b8557815183516040517f5b059991000000000000000000000000000000000000000000000000000000008152600401610b7c929190613680565b60405180910390fd5b6000835167ffffffffffffffff811115610ba257610ba1612860565b5b604051908082528060200260200182016040528015610bd05781602001602082028036833780820191505090505b50905060005b8451811015610c3d57610c0d610bf58287611a2390919063ffffffff16565b610c088387611a3790919063ffffffff16565b6104c8565b828281518110610c2057610c1f6136a9565b5b60200260200101818152505080610c36906136d8565b9050610bd6565b508091505092915050565b60066020528060005260406000206000915090508054610c679061334b565b80601f0160208091040260200160405190810160405280929190818152602001828054610c939061334b565b8015610ce05780601f10610cb557610100808354040283529160200191610ce0565b820191906000526020600020905b815481529060010190602001808311610cc357829003601f168201915b505050505081565b60055481565b610cf661199c565b610d006000611a4b565b565b60045481565b60086020528160005260406000208181548110610d2457600080fd5b90600052602060002001600091509150505481565b6000600360009054906101000a900473ffffffffffffffffffffffffffffffffffffffff16905090565b6007602052806000526040600020600091509050806000015490806001018054610d8c9061334b565b80601f0160208091040260200160405190810160405280929190818152602001828054610db89061334b565b8015610e055780601f10610dda57610100808354040283529160200191610e05565b820191906000526020600020905b815481529060010190602001808311610de857829003601f168201915b505050505090806002018054610e1a9061334b565b80601f0160208091040260200160405190810160405280929190818152602001828054610e469061334b565b8015610e935780601f10610e6857610100808354040283529160200191610e93565b820191906000526020600020905b815481529060010190602001808311610e7657829003601f168201915b5050505050908060030160009054906101000a900473ffffffffffffffffffffffffffffffffffffffff16908060040154908060050154908060060160009054906101000a900460ff1690806007018054610eed9061334b565b80601f0160208091040260200160405190810160405280929190818152602001828054610f199061334b565b8015610f665780601f10610f3b57610100808354040283529160200191610f66565b820191906000526020600020905b815481529060010190602001808311610f4957829003601f168201915b5050505050905088565b610f82610f7b61189c565b8383611b11565b5050565b600554341015610fcb576040517f08c379a0000000000000000000000000000000000000000000000000000000008152600401610fc29061376c565b60405180910390fd5b600060046000815480929190610fe0906136d8565b91905055905061100133828660405180602001604052806000815250611c81565b6040518061010001604052808281526020018881526020018781526020013373ffffffffffffffffffffffffffffffffffffffff16815260200186815260200184815260200160011515815260200183815250600760008381526020019081526020016000206000820151816000015560208201518160010190816110869190613938565b50604082015181600201908161109c9190613938565b5060608201518160030160006101000a81548173ffffffffffffffffffffffffffffffffffffffff021916908373ffffffffffffffffffffffffffffffffffffffff1602179055506080820151816004015560a0820151816005015560c08201518160060160006101000a81548160ff02191690831515021790555060e082015181600701908161112d9190613938565b50905050856006600083815260200190815260200160002090816111519190613938565b503373ffffffffffffffffffffffffffffffffffffffff16817fe94f3c4278aab1f60e904673c722eb205e22bac723c1e2f0354748e1113422648989898989896040516111a396959493929190613a0a565b60405180910390a350505050505050565b6000600160008473ffffffffffffffffffffffffffffffffffffffff1673ffffffffffffffffffffffffffffffffffffffff16815260200190815260200160002060008373ffffffffffffffffffffffffffffffffffffffff1673ffffffffffffffffffffffffffffffffffffffff16815260200190815260200160002060009054906101000a900460ff16905092915050565b60606000600860003373ffffffffffffffffffffffffffffffffffffffff1673ffffffffffffffffffffffffffffffffffffffff1681526020019081526020016000208054806020026020016040519081016040528092919081815260200182805480156112d557602002820191906000526020600020905b8154815260200190600101908083116112c1575b505050505090506000815167ffffffffffffffff8111156112f9576112f8612860565b5b60405190808252806020026020018201604052801561133257816020015b61131f612512565b8152602001906001900390816113175790505b50905060005b82518110156115f05760076000848381518110611358576113576136a9565b5b6020026020010151815260200190815260200160002060405180610100016040529081600082015481526020016001820180546113949061334b565b80601f01602080910402602001604051908101604052809291908181526020018280546113c09061334b565b801561140d5780601f106113e25761010080835404028352916020019161140d565b820191906000526020600020905b8154815290600101906020018083116113f057829003601f168201915b505050505081526020016002820180546114269061334b565b80601f01602080910402602001604051908101604052809291908181526020018280546114529061334b565b801561149f5780601f106114745761010080835404028352916020019161149f565b820191906000526020600020905b81548152906001019060200180831161148257829003601f168201915b505050505081526020016003820160009054906101000a900473ffffffffffffffffffffffffffffffffffffffff1673ffffffffffffffffffffffffffffffffffffffff1673ffffffffffffffffffffffffffffffffffffffff16815260200160048201548152602001600582015481526020016006820160009054906101000a900460ff1615151515815260200160078201805461153d9061334b565b80601f01602080910402602001604051908101604052809291908181526020018280546115699061334b565b80156115b65780601f1061158b576101008083540402835291602001916115b6565b820191906000526020600020905b81548152906001019060200180831161159957829003601f168201915b5050505050815250508282815181106115d2576115d16136a9565b5b602002602001018190525080806115e8906136d8565b915050611338565b50809250505090565b600061160361189c565b90508073ffffffffffffffffffffffffffffffffffffffff168673ffffffffffffffffffffffffffffffffffffffff1614158015611648575061164686826111b4565b155b1561168c5780866040517fe237d9220000000000000000000000000000000000000000000000000000000081526004016116839291906135c5565b60405180910390fd5b6116998686868686611791565b505050505050565b6116a961199c565b600073ffffffffffffffffffffffffffffffffffffffff168173ffffffffffffffffffffffffffffffffffffffff160361171b5760006040517f1e4fbdf70000000000000000000000000000000000000000000000000000000081526004016117129190612d51565b60405180910390fd5b61172481611a4b565b50565b60007f01ffc9a7000000000000000000000000000000000000000000000000000000007bffffffffffffffffffffffffffffffffffffffffffffffffffffffff1916827bffffffffffffffffffffffffffffffffffffffffffffffffffffffff1916149050919050565b600073ffffffffffffffffffffffffffffffffffffffff168473ffffffffffffffffffffffffffffffffffffffff16036118035760006040517f57f447ce0000000000000000000000000000000000000000000000000000000081526004016117fa9190612d51565b60405180910390fd5b600073ffffffffffffffffffffffffffffffffffffffff168573ffffffffffffffffffffffffffffffffffffffff16036118755760006040517f01a8351400000000000000000000000000000000000000000000000000000000815260040161186c9190612d51565b60405180910390fd5b6000806118828585611d1a565b915091506118938787848487611d4a565b50505050505050565b600033905090565b600073ffffffffffffffffffffffffffffffffffffffff168473ffffffffffffffffffffffffffffffffffffffff16036119165760006040517f57f447ce00000000000000000000000000000000000000000000000000000000815260040161190d9190612d51565b60405180910390fd5b600073ffffffffffffffffffffffffffffffffffffffff168573ffffffffffffffffffffffffffffffffffffffff16036119885760006040517f01a8351400000000000000000000000000000000000000000000000000000000815260040161197f9190612d51565b60405180910390fd5b6119958585858585611d4a565b5050505050565b6119a461189c565b73ffffffffffffffffffffffffffffffffffffffff166119c2610d39565b73ffffffffffffffffffffffffffffffffffffffff1614611a21576119e561189c565b6040517f118cdaa7000000000000000000000000000000000000000000000000000000008152600401611a189190612d51565b60405180910390fd5b565b600060208202602084010151905092915050565b600060208202602084010151905092915050565b6000600360009054906101000a900473ffffffffffffffffffffffffffffffffffffffff16905081600360006101000a81548173ffffffffffffffffffffffffffffffffffffffff021916908373ffffffffffffffffffffffffffffffffffffffff1602179055508173ffffffffffffffffffffffffffffffffffffffff168173ffffffffffffffffffffffffffffffffffffffff167f8be0079c531659141344cd1fd0a4f28419497f9722a3daafe3b4186f6b6457e060405160405180910390a35050565b600073ffffffffffffffffffffffffffffffffffffffff168273ffffffffffffffffffffffffffffffffffffffff1603611b835760006040517fced3e100000000000000000000000000000000000000000000000000000000008152600401611b7a9190612d51565b60405180910390fd5b80600160008573ffffffffffffffffffffffffffffffffffffffff1673ffffffffffffffffffffffffffffffffffffffff16815260200190815260200160002060008473ffffffffffffffffffffffffffffffffffffffff1673ffffffffffffffffffffffffffffffffffffffff16815260200190815260200160002060006101000a81548160ff0219169083151502179055508173ffffffffffffffffffffffffffffffffffffffff168373ffffffffffffffffffffffffffffffffffffffff167f17307eab39ab6107e8899845ad3d59bd9653f200f220920489ca2b5937696c3183604051611c749190612721565b60405180910390a3505050565b600073ffffffffffffffffffffffffffffffffffffffff168473ffffffffffffffffffffffffffffffffffffffff1603611cf35760006040517f57f447ce000000000000000000000000000000000000000000000000000000008152600401611cea9190612d51565b60405180910390fd5b600080611d008585611d1a565b91509150611d12600087848487611d4a565b505050505050565b60608060405191506001825283602083015260408201905060018152826020820152604081016040529250929050565b611d5685858585611dfc565b600073ffffffffffffffffffffffffffffffffffffffff168473ffffffffffffffffffffffffffffffffffffffff1614611df5576000611d9461189c565b90506001845103611de4576000611db5600086611a3790919063ffffffff16565b90506000611dcd600086611a3790919063ffffffff16565b9050611ddd8389898585896121aa565b5050611df3565b611df281878787878761235e565b5b505b5050505050565b8051825114611e4657815181516040517f5b059991000000000000000000000000000000000000000000000000000000008152600401611e3d929190613680565b60405180910390fd5b6000611e5061189c565b905060005b8351811015612065576000611e738286611a3790919063ffffffff16565b90506000611e8a8386611a3790919063ffffffff16565b9050600073ffffffffffffffffffffffffffffffffffffffff168873ffffffffffffffffffffffffffffffffffffffff1614611fb757600080600084815260200190815260200160002060008a73ffffffffffffffffffffffffffffffffffffffff1673ffffffffffffffffffffffffffffffffffffffff16815260200190815260200160002054905081811015611f5f57888183856040517f03dee4c5000000000000000000000000000000000000000000000000000000008152600401611f569493929190613a80565b60405180910390fd5b81810360008085815260200190815260200160002060008b73ffffffffffffffffffffffffffffffffffffffff1673ffffffffffffffffffffffffffffffffffffffff16815260200190815260200160002081905550505b600073ffffffffffffffffffffffffffffffffffffffff168773ffffffffffffffffffffffffffffffffffffffff1614612052578060008084815260200190815260200160002060008973ffffffffffffffffffffffffffffffffffffffff1673ffffffffffffffffffffffffffffffffffffffff168152602001908152602001600020600082825461204a9190613ac5565b925050819055505b50508061205e906136d8565b9050611e55565b506001835103612124576000612085600085611a3790919063ffffffff16565b9050600061209d600085611a3790919063ffffffff16565b90508573ffffffffffffffffffffffffffffffffffffffff168773ffffffffffffffffffffffffffffffffffffffff168473ffffffffffffffffffffffffffffffffffffffff167fc3d58168c5ae7397731d063d5bbf3d657854427343f4c083240f7aacaa2d0f628585604051612115929190613680565b60405180910390a450506121a3565b8373ffffffffffffffffffffffffffffffffffffffff168573ffffffffffffffffffffffffffffffffffffffff168273ffffffffffffffffffffffffffffffffffffffff167f4a39dc06d4c0dbc64b70af90fd698a233a518aa5d07e595d983b8c0526c8f7fb868660405161219a929190613af9565b60405180910390a45b5050505050565b60008473ffffffffffffffffffffffffffffffffffffffff163b1115612356578373ffffffffffffffffffffffffffffffffffffffff1663f23a6e6187878686866040518663ffffffff1660e01b815260040161220b959493929190613b85565b6020604051808303816000875af192505050801561224757506040513d601f19601f820116820180604052508101906122449190613bf4565b60015b6122cb573d8060008114612277576040519150601f19603f3d011682016040523d82523d6000602084013e61227c565b606091505b5060008151036122c357846040517f57f447ce0000000000000000000000000000000000000000000000000000000081526004016122ba9190612d51565b60405180910390fd5b805181602001fd5b63f23a6e6160e01b7bffffffffffffffffffffffffffffffffffffffffffffffffffffffff1916817bffffffffffffffffffffffffffffffffffffffffffffffffffffffff19161461235457846040517f57f447ce00000000000000000000000000000000000000000000000000000000815260040161234b9190612d51565b60405180910390fd5b505b505050505050565b60008473ffffffffffffffffffffffffffffffffffffffff163b111561250a578373ffffffffffffffffffffffffffffffffffffffff1663bc197c8187878686866040518663ffffffff1660e01b81526004016123bf959493929190613c21565b6020604051808303816000875af19250505080156123fb57506040513d601f19601f820116820180604052508101906123f89190613bf4565b60015b61247f573d806000811461242b576040519150601f19603f3d011682016040523d82523d6000602084013e612430565b606091505b50600081510361247757846040517f57f447ce00000000000000000000000000000000000000000000000000000000815260040161246e9190612d51565b60405180910390fd5b805181602001fd5b63bc197c8160e01b7bffffffffffffffffffffffffffffffffffffffffffffffffffffffff1916817bffffffffffffffffffffffffffffffffffffffffffffffffffffffff19161461250857846040517f57f447ce0000000000000000000000000000000000000000000000000000000081526004016124ff9190612d51565b60405180910390fd5b505b505050505050565b604051806101000160405280600081526020016060815260200160608152602001600073ffffffffffffffffffffffffffffffffffffffff1681526020016000815260200160008152602001600015158152602001606081525090565b6000604051905090565b600080fd5b600080fd5b600073ffffffffffffffffffffffffffffffffffffffff82169050919050565b60006125ae82612583565b9050919050565b6125be816125a3565b81146125c957600080fd5b50565b6000813590506125db816125b5565b92915050565b6000819050919050565b6125f4816125e1565b81146125ff57600080fd5b50565b600081359050612611816125eb565b92915050565b6000806040838503121561262e5761262d612579565b5b600061263c858286016125cc565b925050602061264d85828601612602565b9150509250929050565b612660816125e1565b82525050565b600060208201905061267b6000830184612657565b92915050565b60007fffffffff0000000000000000000000000000000000000000000000000000000082169050919050565b6126b681612681565b81146126c157600080fd5b50565b6000813590506126d3816126ad565b92915050565b6000602082840312156126ef576126ee612579565b5b60006126fd848285016126c4565b91505092915050565b60008115159050919050565b61271b81612706565b82525050565b60006020820190506127366000830184612712565b92915050565b60006020828403121561275257612751612579565b5b600061276084828501612602565b91505092915050565b600081519050919050565b600082825260208201905092915050565b60005b838110156127a3578082015181840152602081019050612788565b60008484015250505050565b6000601f19601f8301169050919050565b60006127cb82612769565b6127d58185612774565b93506127e5818560208601612785565b6127ee816127af565b840191505092915050565b6000602082019050818103600083015261281381846127c0565b905092915050565b6000806040838503121561283257612831612579565b5b600061284085828601612602565b925050602061285185828601612602565b9150509250929050565b600080fd5b7f4e487b7100000000000000000000000000000000000000000000000000000000600052604160045260246000fd5b612898826127af565b810181811067ffffffffffffffff821117156128b7576128b6612860565b5b80604052505050565b60006128ca61256f565b90506128d6828261288f565b919050565b600067ffffffffffffffff8211156128f6576128f5612860565b5b602082029050602081019050919050565b600080fd5b600061291f61291a846128db565b6128c0565b9050808382526020820190506020840283018581111561294257612941612907565b5b835b8181101561296b57806129578882612602565b845260208401935050602081019050612944565b5050509392505050565b600082601f83011261298a5761298961285b565b5b813561299a84826020860161290c565b91505092915050565b600080fd5b600067ffffffffffffffff8211156129c3576129c2612860565b5b6129cc826127af565b9050602081019050919050565b82818337600083830152505050565b60006129fb6129f6846129a8565b6128c0565b905082815260208101848484011115612a1757612a166129a3565b5b612a228482856129d9565b509392505050565b600082601f830112612a3f57612a3e61285b565b5b8135612a4f8482602086016129e8565b91505092915050565b600080600080600060a08688031215612a7457612a73612579565b5b6000612a82888289016125cc565b9550506020612a93888289016125cc565b945050604086013567ffffffffffffffff811115612ab457612ab361257e565b5b612ac088828901612975565b935050606086013567ffffffffffffffff811115612ae157612ae061257e565b5b612aed88828901612975565b925050608086013567ffffffffffffffff811115612b0e57612b0d61257e565b5b612b1a88828901612a2a565b9150509295509295909350565b600067ffffffffffffffff821115612b4257612b41612860565b5b602082029050602081019050919050565b6000612b66612b6184612b27565b6128c0565b90508083825260208201905060208402830185811115612b8957612b88612907565b5b835b81811015612bb25780612b9e88826125cc565b845260208401935050602081019050612b8b565b5050509392505050565b600082601f830112612bd157612bd061285b565b5b8135612be1848260208601612b53565b91505092915050565b60008060408385031215612c0157612c00612579565b5b600083013567ffffffffffffffff811115612c1f57612c1e61257e565b5b612c2b85828601612bbc565b925050602083013567ffffffffffffffff811115612c4c57612c4b61257e565b5b612c5885828601612975565b9150509250929050565b600081519050919050565b600082825260208201905092915050565b6000819050602082019050919050565b612c97816125e1565b82525050565b6000612ca98383612c8e565b60208301905092915050565b6000602082019050919050565b6000612ccd82612c62565b612cd78185612c6d565b9350612ce283612c7e565b8060005b83811015612d13578151612cfa8882612c9d565b9750612d0583612cb5565b925050600181019050612ce6565b5085935050505092915050565b60006020820190508181036000830152612d3a8184612cc2565b905092915050565b612d4b816125a3565b82525050565b6000602082019050612d666000830184612d42565b92915050565b6000612d7782612583565b9050919050565b612d8781612d6c565b82525050565b600061010082019050612da3600083018b612657565b8181036020830152612db5818a6127c0565b90508181036040830152612dc981896127c0565b9050612dd86060830188612d7e565b612de56080830187612657565b612df260a0830186612657565b612dff60c0830185612712565b81810360e0830152612e1181846127c0565b90509998505050505050505050565b612e2981612706565b8114612e3457600080fd5b50565b600081359050612e4681612e20565b92915050565b60008060408385031215612e6357612e62612579565b5b6000612e71858286016125cc565b9250506020612e8285828601612e37565b9150509250929050565b600067ffffffffffffffff821115612ea757612ea6612860565b5b612eb0826127af565b9050602081019050919050565b6000612ed0612ecb84612e8c565b6128c0565b905082815260208101848484011115612eec57612eeb6129a3565b5b612ef78482856129d9565b509392505050565b600082601f830112612f1457612f1361285b565b5b8135612f24848260208601612ebd565b91505092915050565b60008060008060008060c08789031215612f4a57612f49612579565b5b600087013567ffffffffffffffff811115612f6857612f6761257e565b5b612f7489828a01612eff565b965050602087013567ffffffffffffffff811115612f9557612f9461257e565b5b612fa189828a01612eff565b9550506040612fb289828a01612602565b9450506060612fc389828a01612602565b9350506080612fd489828a01612602565b92505060a087013567ffffffffffffffff811115612ff557612ff461257e565b5b61300189828a01612eff565b9150509295509295509295565b6000806040838503121561302557613024612579565b5b6000613033858286016125cc565b9250506020613044858286016125cc565b9150509250929050565b600081519050919050565b600082825260208201905092915050565b6000819050602082019050919050565b600082825260208201905092915050565b600061309682612769565b6130a0818561307a565b93506130b0818560208601612785565b6130b9816127af565b840191505092915050565b6130cd81612d6c565b82525050565b6130dc81612706565b82525050565b6000610100830160008301516130fb6000860182612c8e565b5060208301518482036020860152613113828261308b565b9150506040830151848203604086015261312d828261308b565b915050606083015161314260608601826130c4565b5060808301516131556080860182612c8e565b5060a083015161316860a0860182612c8e565b5060c083015161317b60c08601826130d3565b5060e083015184820360e0860152613193828261308b565b9150508091505092915050565b60006131ac83836130e2565b905092915050565b6000602082019050919050565b60006131cc8261304e565b6131d68185613059565b9350836020820285016131e88561306a565b8060005b85811015613224578484038952815161320585826131a0565b9450613210836131b4565b925060208a019950506001810190506131ec565b50829750879550505050505092915050565b6000602082019050818103600083015261325081846131c1565b905092915050565b600080600080600060a0868803121561327457613273612579565b5b6000613282888289016125cc565b9550506020613293888289016125cc565b94505060406132a488828901612602565b93505060606132b588828901612602565b925050608086013567ffffffffffffffff8111156132d6576132d561257e565b5b6132e288828901612a2a565b9150509295509295909350565b60006020828403121561330557613304612579565b5b6000613313848285016125cc565b91505092915050565b7f4e487b7100000000000000000000000000000000000000000000000000000000600052602260045260246000fd5b6000600282049050600182168061336357607f821691505b6020821081036133765761337561331c565b5b50919050565b7f44657369676e206e6f7420617661696c61626c6520666f722073616c65000000600082015250565b60006133b2601d83612774565b91506133bd8261337c565b602082019050919050565b600060208201905081810360008301526133e1816133a5565b9050919050565b7f4e487b7100000000000000000000000000000000000000000000000000000000600052601160045260246000fd5b6000613422826125e1565b915061342d836125e1565b925082820261343b816125e1565b91508282048414831517613452576134516133e8565b5b5092915050565b7f496e73756666696369656e742045746865720000000000000000000000000000600082015250565b600061348f601283612774565b915061349a82613459565b602082019050919050565b600060208201905081810360008301526134be81613482565b9050919050565b7f4e6f7420656e6f7567682064657369676e7320617661696c61626c6500000000600082015250565b60006134fb601c83612774565b9150613506826134c5565b602082019050919050565b6000602082019050818103600083015261352a816134ee565b9050919050565b7f4e487b7100000000000000000000000000000000000000000000000000000000600052601260045260246000fd5b600061356b826125e1565b9150613576836125e1565b92508261358657613585613531565b5b828204905092915050565b600061359c826125e1565b91506135a7836125e1565b92508282039050818111156135bf576135be6133e8565b5b92915050565b60006040820190506135da6000830185612d42565b6135e76020830184612d42565b9392505050565b7f4e6f20457468657220617661696c61626c6520666f722077697468647261776160008201527f6c00000000000000000000000000000000000000000000000000000000000000602082015250565b600061364a602183612774565b9150613655826135ee565b604082019050919050565b600060208201905081810360008301526136798161363d565b9050919050565b60006040820190506136956000830185612657565b6136a26020830184612657565b9392505050565b7f4e487b7100000000000000000000000000000000000000000000000000000000600052603260045260246000fd5b60006136e3826125e1565b91507fffffffffffffffffffffffffffffffffffffffffffffffffffffffffffffffff8203613715576137146133e8565b5b600182019050919050565b7f496e73756666696369656e74206c697374696e67206665650000000000000000600082015250565b6000613756601883612774565b915061376182613720565b602082019050919050565b6000602082019050818103600083015261378581613749565b9050919050565b60008190508160005260206000209050919050565b60006020601f8301049050919050565b600082821b905092915050565b6000600883026137ee7fffffffffffffffffffffffffffffffffffffffffffffffffffffffffffffffff826137b1565b6137f886836137b1565b95508019841693508086168417925050509392505050565b6000819050919050565b600061383561383061382b846125e1565b613810565b6125e1565b9050919050565b6000819050919050565b61384f8361381a565b61386361385b8261383c565b8484546137be565b825550505050565b600090565b61387861386b565b613883818484613846565b505050565b5b818110156138a75761389c600082613870565b600181019050613889565b5050565b601f8211156138ec576138bd8161378c565b6138c6846137a1565b810160208510156138d5578190505b6138e96138e1856137a1565b830182613888565b50505b505050565b600082821c905092915050565b600061390f600019846008026138f1565b1980831691505092915050565b600061392883836138fe565b9150826002028217905092915050565b61394182612769565b67ffffffffffffffff81111561395a57613959612860565b5b613964825461334b565b61396f8282856138ab565b600060209050601f8311600181146139a25760008415613990578287015190505b61399a858261391c565b865550613a02565b601f1984166139b08661378c565b60005b828110156139d8578489015182556001820191506020850194506020810190506139b3565b868310156139f557848901516139f1601f8916826138fe565b8355505b6001600288020188555050505b505050505050565b600060c0820190508181036000830152613a2481896127c0565b90508181036020830152613a3881886127c0565b9050613a476040830187612657565b613a546060830186612657565b613a616080830185612657565b81810360a0830152613a7381846127c0565b9050979650505050505050565b6000608082019050613a956000830187612d42565b613aa26020830186612657565b613aaf6040830185612657565b613abc6060830184612657565b95945050505050565b6000613ad0826125e1565b9150613adb836125e1565b9250828201905080821115613af357613af26133e8565b5b92915050565b60006040820190508181036000830152613b138185612cc2565b90508181036020830152613b278184612cc2565b90509392505050565b600081519050919050565b600082825260208201905092915050565b6000613b5782613b30565b613b618185613b3b565b9350613b71818560208601612785565b613b7a816127af565b840191505092915050565b600060a082019050613b9a6000830188612d42565b613ba76020830187612d42565b613bb46040830186612657565b613bc16060830185612657565b8181036080830152613bd38184613b4c565b90509695505050505050565b600081519050613bee816126ad565b92915050565b600060208284031215613c0a57613c09612579565b5b6000613c1884828501613bdf565b91505092915050565b600060a082019050613c366000830188612d42565b613c436020830187612d42565b8181036040830152613c558186612cc2565b90508181036060830152613c698185612cc2565b90508181036080830152613c7d8184613b4c565b9050969550505050505056fea26469706673582212205c4cc73f24045bba9d960451dfc7e165e1582bca02b9b94873c742d56c0daf8464736f6c63430008140033",
  "linkReferences": {},
  "deployedLinkReferences": {}
}