{
  "_format": "hh-sol-artifact-1",
  "contractName": "ClothStore",
  "sourceName": "contracts/ClothStore.sol",
  "abi": [
    {
      "inputs": [],
      "stateMutability": "nonpayable",
      "type": "constructor"
    },
    {
      "inputs": [
        {
          "internalType": "address",
          "name": "sender",
          "type": "address"
        },
        {
          "internalType": "uint256",
          "name": "balance",
          "type": "uint256"
        },
        {
          "internalType": "uint256",
          "name": "needed",
          "type": "uint256"
        },
        {
          "internalType": "uint256",
          "name": "tokenId",
          "type": "uint256"
        }
      ],
      "name": "ERC1155InsufficientBalance",
      "type": "error"
    },
    {
      "inputs": [
        {
          "internalType": "address",
          "name": "approver",
          "type": "address"
        }
      ],
      "name": "ERC1155InvalidApprover",
      "type": "error"
    },
    {
      "inputs": [
        {
          "internalType": "uint256",
          "name": "idsLength",
          "type": "uint256"
        },
        {
          "internalType": "uint256",
          "name": "valuesLength",
          "type": "uint256"
        }
      ],
      "name": "ERC1155InvalidArrayLength",
      "type": "error"
    },
    {
      "inputs": [
        {
          "internalType": "address",
          "name": "operator",
          "type": "address"
        }
      ],
      "name": "ERC1155InvalidOperator",
      "type": "error"
    },
    {
      "inputs": [
        {
          "internalType": "address",
          "name": "receiver",
          "type": "address"
        }
      ],
      "name": "ERC1155InvalidReceiver",
      "type": "error"
    },
    {
      "inputs": [
        {
          "internalType": "address",
          "name": "sender",
          "type": "address"
        }
      ],
      "name": "ERC1155InvalidSender",
      "type": "error"
    },
    {
      "inputs": [
        {
          "internalType": "address",
          "name": "operator",
          "type": "address"
        },
        {
          "internalType": "address",
          "name": "owner",
          "type": "address"
        }
      ],
      "name": "ERC1155MissingApprovalForAll",
      "type": "error"
    },
    {
      "inputs": [
        {
          "internalType": "address",
          "name": "owner",
          "type": "address"
        }
      ],
      "name": "OwnableInvalidOwner",
      "type": "error"
    },
    {
      "inputs": [
        {
          "internalType": "address",
          "name": "account",
          "type": "address"
        }
      ],
      "name": "OwnableUnauthorizedAccount",
      "type": "error"
    },
    {
      "anonymous": false,
      "inputs": [
        {
          "indexed": true,
          "internalType": "address",
          "name": "account",
          "type": "address"
        },
        {
          "indexed": true,
          "internalType": "address",
          "name": "operator",
          "type": "address"
        },
        {
          "indexed": false,
          "internalType": "bool",
          "name": "approved",
          "type": "bool"
        }
      ],
      "name": "ApprovalForAll",
      "type": "event"
    },
    {
      "anonymous": false,
      "inputs": [
        {
          "indexed": true,
          "internalType": "uint256",
          "name": "tokenId",
          "type": "uint256"
        },
        {
          "indexed": true,
          "internalType": "address",
          "name": "buyer",
          "type": "address"
        },
        {
          "indexed": true,
          "internalType": "address",
          "name": "seller",
          "type": "address"
        },
        {
          "indexed": false,
          "internalType": "uint256",
          "name": "price",
          "type": "uint256"
        }
      ],
      "name": "DesignBought",
      "type": "event"
    },
    {
      "anonymous": false,
      "inputs": [
        {
          "indexed": true,
          "internalType": "uint256",
          "name": "tokenId",
          "type": "uint256"
        },
        {
          "indexed": true,
          "internalType": "address",
          "name": "creator",
          "type": "address"
        },
        {
          "indexed": false,
          "internalType": "string",
          "name": "name",
          "type": "string"
        },
        {
          "indexed": false,
          "internalType": "string",
          "name": "category",
          "type": "string"
        },
        {
          "indexed": false,
          "internalType": "uint256",
          "name": "price",
          "type": "uint256"
        },
        {
          "indexed": false,
          "internalType": "uint256",
          "name": "amount",
          "type": "uint256"
        },
        {
          "indexed": false,
          "internalType": "uint256",
          "name": "royalty",
          "type": "uint256"
        },
        {
          "indexed": false,
          "internalType": "string",
          "name": "imageURI",
          "type": "string"
        }
      ],
      "name": "DesignUploaded",
      "type": "event"
    },
    {
      "anonymous": false,
      "inputs": [
        {
          "indexed": true,
          "internalType": "address",
          "name": "previousOwner",
          "type": "address"
        },
        {
          "indexed": true,
          "internalType": "address",
          "name": "newOwner",
          "type": "address"
        }
      ],
      "name": "OwnershipTransferred",
      "type": "event"
    },
    {
      "anonymous": false,
      "inputs": [
        {
          "indexed": true,
          "internalType": "address",
          "name": "operator",
          "type": "address"
        },
        {
          "indexed": true,
          "internalType": "address",
          "name": "from",
          "type": "address"
        },
        {
          "indexed": true,
          "internalType": "address",
          "name": "to",
          "type": "address"
        },
        {
          "indexed": false,
          "internalType": "uint256[]",
          "name": "ids",
          "type": "uint256[]"
        },
        {
          "indexed": false,
          "internalType": "uint256[]",
          "name": "values",
          "type": "uint256[]"
        }
      ],
      "name": "TransferBatch",
      "type": "event"
    },
    {
      "anonymous": false,
      "inputs": [
        {
          "indexed": true,
          "internalType": "address",
          "name": "operator",
          "type": "address"
        },
        {
          "indexed": true,
          "internalType": "address",
          "name": "from",
          "type": "address"
        },
        {
          "indexed": true,
          "internalType": "address",
          "name": "to",
          "type": "address"
        },
        {
          "indexed": false,
          "internalType": "uint256",
          "name": "id",
          "type": "uint256"
        },
        {
          "indexed": false,
          "internalType": "uint256",
          "name": "value",
          "type": "uint256"
        }
      ],
      "name": "TransferSingle",
      "type": "event"
    },
    {
      "anonymous": false,
      "inputs": [
        {
          "indexed": false,
          "internalType": "string",
          "name": "value",
          "type": "string"
        },
        {
          "indexed": true,
          "internalType": "uint256",
          "name": "id",
          "type": "uint256"
        }
      ],
      "name": "URI",
      "type": "event"
    },
    {
      "inputs": [
        {
          "internalType": "address",
          "name": "account",
          "type": "address"
        },
        {
          "internalType": "uint256",
          "name": "id",
          "type": "uint256"
        }
      ],
      "name": "balanceOf",
      "outputs": [
        {
          "internalType": "uint256",
          "name": "",
          "type": "uint256"
        }
      ],
      "stateMutability": "view",
      "type": "function"
    },
    {
      "inputs": [
        {
          "internalType": "address[]",
          "name": "accounts",
          "type": "address[]"
        },
        {
          "internalType": "uint256[]",
          "name": "ids",
          "type": "uint256[]"
        }
      ],
      "name": "balanceOfBatch",
      "outputs": [
        {
          "internalType": "uint256[]",
          "name": "",
          "type": "uint256[]"
        }
      ],
      "stateMutability": "view",
      "type": "function"
    },
    {
      "inputs": [
        {
          "internalType": "uint256",
          "name": "_tokenId",
          "type": "uint256"
        },
        {
          "internalType": "uint256",
          "name": "_amount",
          "type": "uint256"
        }
      ],
      "name": "buyDesign",
      "outputs": [],
      "stateMutability": "payable",
      "type": "function"
    },
    {
      "inputs": [
        {
          "internalType": "uint256",
          "name": "",
          "type": "uint256"
        }
      ],
      "name": "designs",
      "outputs": [
        {
          "internalType": "uint256",
          "name": "tokenId",
          "type": "uint256"
        },
        {
          "internalType": "string",
          "name": "name",
          "type": "string"
        },
        {
          "internalType": "string",
          "name": "category",
          "type": "string"
        },
        {
          "internalType": "address payable",
          "name": "creator",
          "type": "address"
        },
        {
          "internalType": "uint256",
          "name": "price",
          "type": "uint256"
        },
        {
          "internalType": "uint256",
          "name": "royalty",
          "type": "uint256"
        },
        {
          "internalType": "bool",
          "name": "isListed",
          "type": "bool"
        },
        {
          "internalType": "string",
          "name": "imageURI",
          "type": "string"
        }
      ],
      "stateMutability": "view",
      "type": "function"
    },
    {
      "inputs": [
        {
          "internalType": "address",
          "name": "account",
          "type": "address"
        },
        {
          "internalType": "address",
          "name": "operator",
          "type": "address"
        }
      ],
      "name": "isApprovedForAll",
      "outputs": [
        {
          "internalType": "bool",
          "name": "",
          "type": "bool"
        }
      ],
      "stateMutability": "view",
      "type": "function"
    },
    {
      "inputs": [],
      "name": "listingFee",
      "outputs": [
        {
          "internalType": "uint256",
          "name": "",
          "type": "uint256"
        }
      ],
      "stateMutability": "view",
      "type": "function"
    },
    {
      "inputs": [],
      "name": "myPersonalWardrobe",
      "outputs": [
        {
          "components": [
            {
              "internalType": "uint256",
              "name": "tokenId",
              "type": "uint256"
            },
            {
              "internalType": "string",
              "name": "name",
              "type": "string"
            },
            {
              "internalType": "string",
              "name": "category",
              "type": "string"
            },
            {
              "internalType": "address payable",
              "name": "creator",
              "type": "address"
            },
            {
              "internalType": "uint256",
              "name": "price",
              "type": "uint256"
            },
            {
              "internalType": "uint256",
              "name": "royalty",
              "type": "uint256"
            },
            {
              "internalType": "bool",
              "name": "isListed",
              "type": "bool"
            },
            {
              "internalType": "string",
              "name": "imageURI",
              "type": "string"
            }
          ],
          "internalType": "struct ClothStore.Design[]",
          "name": "",
          "type": "tuple[]"
        }
      ],
      "stateMutability": "view",
      "type": "function"
    },
    {
      "inputs": [],
      "name": "nextTokenId",
      "outputs": [
        {
          "internalType": "uint256",
          "name": "",
          "type": "uint256"
        }
      ],
      "stateMutability": "view",
      "type": "function"
    },
    {
      "inputs": [
        {
          "internalType": "address",
          "name": "",
          "type": "address"
        },
        {
          "internalType": "uint256",
          "name": "",
          "type": "uint256"
        }
      ],
      "name": "ownedDesigns",
      "outputs": [
        {
          "internalType": "uint256",
          "name": "",
          "type": "uint256"
        }
      ],
      "stateMutability": "view",
      "type": "function"
    },
    {
      "inputs": [],
      "name": "owner",
      "outputs": [
        {
          "internalType": "address",
          "name": "",
          "type": "address"
        }
      ],
      "stateMutability": "view",
      "type": "function"
    },
    {
      "inputs": [],
      "name": "renounceOwnership",
      "outputs": [],
      "stateMutability": "nonpayable",
      "type": "function"
    },
    {
      "inputs": [
        {
          "internalType": "address",
          "name": "from",
          "type": "address"
        },
        {
          "internalType": "address",
          "name": "to",
          "type": "address"
        },
        {
          "internalType": "uint256[]",
          "name": "ids",
          "type": "uint256[]"
        },
        {
          "internalType": "uint256[]",
          "name": "values",
          "type": "uint256[]"
        },
        {
          "internalType": "bytes",
          "name": "data",
          "type": "bytes"
        }
      ],
      "name": "safeBatchTransferFrom",
      "outputs": [],
      "stateMutability": "nonpayable",
      "type": "function"
    },
    {
      "inputs": [
        {
          "internalType": "address",
          "name": "from",
          "type": "address"
        },
        {
          "internalType": "address",
          "name": "to",
          "type": "address"
        },
        {
          "internalType": "uint256",
          "name": "id",
          "type": "uint256"
        },
        {
          "internalType": "uint256",
          "name": "value",
          "type": "uint256"
        },
        {
          "internalType": "bytes",
          "name": "data",
          "type": "bytes"
        }
      ],
      "name": "safeTransferFrom",
      "outputs": [],
      "stateMutability": "nonpayable",
      "type": "function"
    },
    {
      "inputs": [
        {
          "internalType": "address",
          "name": "operator",
          "type": "address"
        },
        {
          "internalType": "bool",
          "name": "approved",
          "type": "bool"
        }
      ],
      "name": "setApprovalForAll",
      "outputs": [],
      "stateMutability": "nonpayable",
      "type": "function"
    },
    {
      "inputs": [
        {
          "internalType": "bytes4",
          "name": "interfaceId",
          "type": "bytes4"
        }
      ],
      "name": "supportsInterface",
      "outputs": [
        {
          "internalType": "bool",
          "name": "",
          "type": "bool"
        }
      ],
      "stateMutability": "view",
      "type": "function"
    },
    {
      "inputs": [
        {
          "internalType": "address",
          "name": "newOwner",
          "type": "address"
        }
      ],
      "name": "transferOwnership",
      "outputs": [],
      "stateMutability": "nonpayable",
      "type": "function"
    },
    {
      "inputs": [
        {
          "internalType": "string",
          "name": "_name",
          "type": "string"
        },
        {
          "internalType": "string",
          "name": "_category",
          "type": "string"
        },
        {
          "internalType": "uint256",
          "name": "_price",
          "type": "uint256"
        },
        {
          "internalType": "uint256",
          "name": "_amount",
          "type": "uint256"
        },
        {
          "internalType": "uint256",
          "name": "_royalty",
          "type": "uint256"
        },
        {
          "internalType": "string",
          "name": "_imageURI",
          "type": "string"
        }
      ],
      "name": "uploadDesign",
      "outputs": [],
      "stateMutability": "nonpayable",
      "type": "function"
    },
    {
      "inputs": [
        {
          "internalType": "uint256",
          "name": "",
          "type": "uint256"
        }
      ],
      "name": "uri",
      "outputs": [
        {
          "internalType": "string",
          "name": "",
          "type": "string"
        }
      ],
      "stateMutability": "view",
      "type": "function"
    },
    {
      "inputs": [],
      "name": "withdraw",
      "outputs": [],
      "stateMutability": "nonpayable",
      "type": "function"
    }
  ],
  "bytecode": "0x60806040523480156200001157600080fd5b5033604051806020016040528060008152506200003481620000c260201b60201c565b50600073ffffffffffffffffffffffffffffffffffffffff168173ffffffffffffffffffffffffffffffffffffffff1603620000aa5760006040517f1e4fbdf7000000000000000000000000000000000000000000000000000000008152600401620000a19190620001e2565b60405180910390fd5b620000bb81620000d760201b60201c565b5062000560565b8060029081620000d3919062000479565b5050565b6000600360009054906101000a900473ffffffffffffffffffffffffffffffffffffffff16905081600360006101000a81548173ffffffffffffffffffffffffffffffffffffffff021916908373ffffffffffffffffffffffffffffffffffffffff1602179055508173ffffffffffffffffffffffffffffffffffffffff168173ffffffffffffffffffffffffffffffffffffffff167f8be0079c531659141344cd1fd0a4f28419497f9722a3daafe3b4186f6b6457e060405160405180910390a35050565b600073ffffffffffffffffffffffffffffffffffffffff82169050919050565b6000620001ca826200019d565b9050919050565b620001dc81620001bd565b82525050565b6000602082019050620001f96000830184620001d1565b92915050565b600081519050919050565b7f4e487b7100000000000000000000000000000000000000000000000000000000600052604160045260246000fd5b7f4e487b7100000000000000000000000000000000000000000000000000000000600052602260045260246000fd5b600060028204905060018216806200028157607f821691505b60208210810362000297576200029662000239565b5b50919050565b60008190508160005260206000209050919050565b60006020601f8301049050919050565b600082821b905092915050565b600060088302620003017fffffffffffffffffffffffffffffffffffffffffffffffffffffffffffffffff82620002c2565b6200030d8683620002c2565b95508019841693508086168417925050509392505050565b6000819050919050565b6000819050919050565b60006200035a620003546200034e8462000325565b6200032f565b62000325565b9050919050565b6000819050919050565b620003768362000339565b6200038e620003858262000361565b848454620002cf565b825550505050565b600090565b620003a562000396565b620003b28184846200036b565b505050565b5b81811015620003da57620003ce6000826200039b565b600181019050620003b8565b5050565b601f8211156200042957620003f3816200029d565b620003fe84620002b2565b810160208510156200040e578190505b620004266200041d85620002b2565b830182620003b7565b50505b505050565b600082821c905092915050565b60006200044e600019846008026200042e565b1980831691505092915050565b60006200046983836200043b565b9150826002028217905092915050565b6200048482620001ff565b67ffffffffffffffff811115620004a0576200049f6200020a565b5b620004ac825462000268565b620004b9828285620003de565b600060209050601f831160018114620004f15760008415620004dc578287015190505b620004e885826200045b565b86555062000558565b601f19841662000501866200029d565b60005b828110156200052b5784890151825560018201915060208501945060208101905062000504565b868310156200054b578489015162000547601f8916826200043b565b8355505b6001600288020188555050505b505050505050565b613e3380620005706000396000f3fe6080604052600436106101135760003560e01c806375794a3c116100a0578063c555f67011610064578063c555f670146103aa578063e985e9c5146103d3578063eb3d3e4b14610410578063f242432a1461043b578063f2fde38b1461046457610113565b806375794a3c146102aa57806377ecc872146102d55780638da5cb5b1461031257806390ac11a31461033d578063a22cb4651461038157610113565b80632eb2c2d6116100e75780632eb2c2d6146101eb5780633ccfd60b146102145780634e1273f41461022b5780636a1b7ecc14610268578063715018a61461029357610113565b8062fdd58e1461011857806301ffc9a7146101555780630e89341c1461019257806325b26494146101cf575b600080fd5b34801561012457600080fd5b5061013f600480360381019061013a9190612647565b61048d565b60405161014c9190612696565b60405180910390f35b34801561016157600080fd5b5061017c60048036038101906101779190612709565b6104e7565b6040516101899190612751565b60405180910390f35b34801561019e57600080fd5b506101b960048036038101906101b4919061276c565b6105c9565b6040516101c69190612829565b60405180910390f35b6101e960048036038101906101e4919061284b565b61065d565b005b3480156101f757600080fd5b50610212600480360381019061020d9190612a88565b610a13565b005b34801561022057600080fd5b50610229610abb565b005b34801561023757600080fd5b50610252600480360381019061024d9190612c1a565b610b5c565b60405161025f9190612d50565b60405180910390f35b34801561027457600080fd5b5061027d610c6b565b60405161028a9190612696565b60405180910390f35b34801561029f57600080fd5b506102a8610c76565b005b3480156102b657600080fd5b506102bf610c8a565b6040516102cc9190612696565b60405180910390f35b3480156102e157600080fd5b506102fc60048036038101906102f79190612647565b610c90565b6040516103099190612696565b60405180910390f35b34801561031e57600080fd5b50610327610cc1565b6040516103349190612d81565b60405180910390f35b34801561034957600080fd5b50610364600480360381019061035f919061276c565b610ceb565b604051610378989796959493929190612dbd565b60405180910390f35b34801561038d57600080fd5b506103a860048036038101906103a39190612e7c565b610ef8565b005b3480156103b657600080fd5b506103d160048036038101906103cc9190612f5d565b610f0e565b005b3480156103df57600080fd5b506103fa60048036038101906103f5919061303e565b6111e4565b6040516104079190612751565b60405180910390f35b34801561041c57600080fd5b50610425611278565b6040516104329190613266565b60405180910390f35b34801561044757600080fd5b50610462600480360381019061045d9190613288565b611629565b005b34801561047057600080fd5b5061048b6004803603810190610486919061331f565b6116d1565b005b600080600083815260200190815260200160002060008473ffffffffffffffffffffffffffffffffffffffff1673ffffffffffffffffffffffffffffffffffffffff16815260200190815260200160002054905092915050565b60007fd9b67a26000000000000000000000000000000000000000000000000000000007bffffffffffffffffffffffffffffffffffffffffffffffffffffffff1916827bffffffffffffffffffffffffffffffffffffffffffffffffffffffff191614806105b257507f0e89341c000000000000000000000000000000000000000000000000000000007bffffffffffffffffffffffffffffffffffffffffffffffffffffffff1916827bffffffffffffffffffffffffffffffffffffffffffffffffffffffff1916145b806105c257506105c182611757565b5b9050919050565b6060600280546105d89061337b565b80601f01602080910402602001604051908101604052809291908181526020018280546106049061337b565b80156106515780601f1061062657610100808354040283529160200191610651565b820191906000526020600020905b81548152906001019060200180831161063457829003601f168201915b50505050509050919050565b60006005600084815260200190815260200160002090508060060160009054906101000a900460ff166106c5576040517f08c379a00000000000000000000000000000000000000000000000000000000081526004016106bc906133f8565b60405180910390fd5b8181600401546106d59190613447565b341015610717576040517f08c379a000000000000000000000000000000000000000000000000000000000815260040161070e906134d5565b60405180910390fd5b816107468260030160009054906101000a900473ffffffffffffffffffffffffffffffffffffffff168561048d565b1015610787576040517f08c379a000000000000000000000000000000000000000000000000000000000815260040161077e90613541565b60405180910390fd5b60008282600401546107999190613447565b9050600060648360050154836107af9190613447565b6107b99190613590565b9050600081346107c991906135c1565b905061080b8460030160009054906101000a900473ffffffffffffffffffffffffffffffffffffffff16338888604051806020016040528060008152506117c1565b600061083b8560030160009054906101000a900473ffffffffffffffffffffffffffffffffffffffff168861048d565b0361085e5760008460060160006101000a81548160ff0219169083151502179055505b8360030160009054906101000a900473ffffffffffffffffffffffffffffffffffffffff1673ffffffffffffffffffffffffffffffffffffffff166108fc839081150290604051600060405180830381858888f193505050501580156108c8573d6000803e3d6000fd5b506108d1610cc1565b73ffffffffffffffffffffffffffffffffffffffff166108fc829081150290604051600060405180830381858888f19350505050158015610916573d6000803e3d6000fd5b50600660003373ffffffffffffffffffffffffffffffffffffffff1673ffffffffffffffffffffffffffffffffffffffff1681526020019081526020016000208690806001815401808255809150506001900390600052602060002001600090919091909150558360030160009054906101000a900473ffffffffffffffffffffffffffffffffffffffff1673ffffffffffffffffffffffffffffffffffffffff163373ffffffffffffffffffffffffffffffffffffffff16877f6df4ffda30909c98dd5f5f6f4c356135eafad3f7bb9690f154d78078bb359b418760040154604051610a039190612696565b60405180910390a4505050505050565b6000610a1d6118cc565b90508073ffffffffffffffffffffffffffffffffffffffff168673ffffffffffffffffffffffffffffffffffffffff1614158015610a625750610a6086826111e4565b155b15610aa65780866040517fe237d922000000000000000000000000000000000000000000000000000000008152600401610a9d9291906135f5565b60405180910390fd5b610ab386868686866118d4565b505050505050565b610ac36119cc565b600047905060008111610b0b576040517f08c379a0000000000000000000000000000000000000000000000000000000008152600401610b0290613690565b60405180910390fd5b610b13610cc1565b73ffffffffffffffffffffffffffffffffffffffff166108fc829081150290604051600060405180830381858888f19350505050158015610b58573d6000803e3d6000fd5b5050565b60608151835114610ba857815183516040517f5b059991000000000000000000000000000000000000000000000000000000008152600401610b9f9291906136b0565b60405180910390fd5b6000835167ffffffffffffffff811115610bc557610bc4612890565b5b604051908082528060200260200182016040528015610bf35781602001602082028036833780820191505090505b50905060005b8451811015610c6057610c30610c188287611a5390919063ffffffff16565b610c2b8387611a6790919063ffffffff16565b61048d565b828281518110610c4357610c426136d9565b5b60200260200101818152505080610c5990613708565b9050610bf9565b508091505092915050565b662386f26fc1000081565b610c7e6119cc565b610c886000611a7b565b565b60045481565b60066020528160005260406000208181548110610cac57600080fd5b90600052602060002001600091509150505481565b6000600360009054906101000a900473ffffffffffffffffffffffffffffffffffffffff16905090565b6005602052806000526040600020600091509050806000015490806001018054610d149061337b565b80601f0160208091040260200160405190810160405280929190818152602001828054610d409061337b565b8015610d8d5780601f10610d6257610100808354040283529160200191610d8d565b820191906000526020600020905b815481529060010190602001808311610d7057829003601f168201915b505050505090806002018054610da29061337b565b80601f0160208091040260200160405190810160405280929190818152602001828054610dce9061337b565b8015610e1b5780601f10610df057610100808354040283529160200191610e1b565b820191906000526020600020905b815481529060010190602001808311610dfe57829003601f168201915b5050505050908060030160009054906101000a900473ffffffffffffffffffffffffffffffffffffffff16908060040154908060050154908060060160009054906101000a900460ff1690806007018054610e759061337b565b80601f0160208091040260200160405190810160405280929190818152602001828054610ea19061337b565b8015610eee5780601f10610ec357610100808354040283529160200191610eee565b820191906000526020600020905b815481529060010190602001808311610ed157829003601f168201915b5050505050905088565b610f0a610f036118cc565b8383611b41565b5050565b6000865111610f52576040517f08c379a0000000000000000000000000000000000000000000000000000000008152600401610f499061379c565b60405180910390fd5b6000855111610f96576040517f08c379a0000000000000000000000000000000000000000000000000000000008152600401610f8d90613808565b60405180910390fd5b60008411610fd9576040517f08c379a0000000000000000000000000000000000000000000000000000000008152600401610fd090613874565b60405180910390fd5b6000831161101c576040517f08c379a0000000000000000000000000000000000000000000000000000000008152600401611013906138e0565b60405180910390fd5b60006004600081548092919061103190613708565b91905055905061105233828660405180602001604052806000815250611cb1565b6040518061010001604052808281526020018881526020018781526020013373ffffffffffffffffffffffffffffffffffffffff16815260200186815260200184815260200160011515815260200183815250600560008381526020019081526020016000206000820151816000015560208201518160010190816110d79190613aac565b5060408201518160020190816110ed9190613aac565b5060608201518160030160006101000a81548173ffffffffffffffffffffffffffffffffffffffff021916908373ffffffffffffffffffffffffffffffffffffffff1602179055506080820151816004015560a0820151816005015560c08201518160060160006101000a81548160ff02191690831515021790555060e082015181600701908161117e9190613aac565b509050503373ffffffffffffffffffffffffffffffffffffffff16817fe94f3c4278aab1f60e904673c722eb205e22bac723c1e2f0354748e1113422648989898989896040516111d396959493929190613b7e565b60405180910390a350505050505050565b6000600160008473ffffffffffffffffffffffffffffffffffffffff1673ffffffffffffffffffffffffffffffffffffffff16815260200190815260200160002060008373ffffffffffffffffffffffffffffffffffffffff1673ffffffffffffffffffffffffffffffffffffffff16815260200190815260200160002060009054906101000a900460ff16905092915050565b60606000600660003373ffffffffffffffffffffffffffffffffffffffff1673ffffffffffffffffffffffffffffffffffffffff16815260200190815260200160002080548060200260200160405190810160405280929190818152602001828054801561130557602002820191906000526020600020905b8154815260200190600101908083116112f1575b505050505090506000815167ffffffffffffffff81111561132957611328612890565b5b60405190808252806020026020018201604052801561136257816020015b61134f612542565b8152602001906001900390816113475790505b50905060005b82518110156116205760056000848381518110611388576113876136d9565b5b6020026020010151815260200190815260200160002060405180610100016040529081600082015481526020016001820180546113c49061337b565b80601f01602080910402602001604051908101604052809291908181526020018280546113f09061337b565b801561143d5780601f106114125761010080835404028352916020019161143d565b820191906000526020600020905b81548152906001019060200180831161142057829003601f168201915b505050505081526020016002820180546114569061337b565b80601f01602080910402602001604051908101604052809291908181526020018280546114829061337b565b80156114cf5780601f106114a4576101008083540402835291602001916114cf565b820191906000526020600020905b8154815290600101906020018083116114b257829003601f168201915b505050505081526020016003820160009054906101000a900473ffffffffffffffffffffffffffffffffffffffff1673ffffffffffffffffffffffffffffffffffffffff1673ffffffffffffffffffffffffffffffffffffffff16815260200160048201548152602001600582015481526020016006820160009054906101000a900460ff1615151515815260200160078201805461156d9061337b565b80601f01602080910402602001604051908101604052809291908181526020018280546115999061337b565b80156115e65780601f106115bb576101008083540402835291602001916115e6565b820191906000526020600020905b8154815290600101906020018083116115c957829003601f168201915b505050505081525050828281518110611602576116016136d9565b5b6020026020010181905250808061161890613708565b915050611368565b50809250505090565b60006116336118cc565b90508073ffffffffffffffffffffffffffffffffffffffff168673ffffffffffffffffffffffffffffffffffffffff1614158015611678575061167686826111e4565b155b156116bc5780866040517fe237d9220000000000000000000000000000000000000000000000000000000081526004016116b39291906135f5565b60405180910390fd5b6116c986868686866117c1565b505050505050565b6116d96119cc565b600073ffffffffffffffffffffffffffffffffffffffff168173ffffffffffffffffffffffffffffffffffffffff160361174b5760006040517f1e4fbdf70000000000000000000000000000000000000000000000000000000081526004016117429190612d81565b60405180910390fd5b61175481611a7b565b50565b60007f01ffc9a7000000000000000000000000000000000000000000000000000000007bffffffffffffffffffffffffffffffffffffffffffffffffffffffff1916827bffffffffffffffffffffffffffffffffffffffffffffffffffffffff1916149050919050565b600073ffffffffffffffffffffffffffffffffffffffff168473ffffffffffffffffffffffffffffffffffffffff16036118335760006040517f57f447ce00000000000000000000000000000000000000000000000000000000815260040161182a9190612d81565b60405180910390fd5b600073ffffffffffffffffffffffffffffffffffffffff168573ffffffffffffffffffffffffffffffffffffffff16036118a55760006040517f01a8351400000000000000000000000000000000000000000000000000000000815260040161189c9190612d81565b60405180910390fd5b6000806118b28585611d4a565b915091506118c38787848487611d7a565b50505050505050565b600033905090565b600073ffffffffffffffffffffffffffffffffffffffff168473ffffffffffffffffffffffffffffffffffffffff16036119465760006040517f57f447ce00000000000000000000000000000000000000000000000000000000815260040161193d9190612d81565b60405180910390fd5b600073ffffffffffffffffffffffffffffffffffffffff168573ffffffffffffffffffffffffffffffffffffffff16036119b85760006040517f01a835140000000000000000000000000000000000000000000000000000000081526004016119af9190612d81565b60405180910390fd5b6119c58585858585611d7a565b5050505050565b6119d46118cc565b73ffffffffffffffffffffffffffffffffffffffff166119f2610cc1565b73ffffffffffffffffffffffffffffffffffffffff1614611a5157611a156118cc565b6040517f118cdaa7000000000000000000000000000000000000000000000000000000008152600401611a489190612d81565b60405180910390fd5b565b600060208202602084010151905092915050565b600060208202602084010151905092915050565b6000600360009054906101000a900473ffffffffffffffffffffffffffffffffffffffff16905081600360006101000a81548173ffffffffffffffffffffffffffffffffffffffff021916908373ffffffffffffffffffffffffffffffffffffffff1602179055508173ffffffffffffffffffffffffffffffffffffffff168173ffffffffffffffffffffffffffffffffffffffff167f8be0079c531659141344cd1fd0a4f28419497f9722a3daafe3b4186f6b6457e060405160405180910390a35050565b600073ffffffffffffffffffffffffffffffffffffffff168273ffffffffffffffffffffffffffffffffffffffff1603611bb35760006040517fced3e100000000000000000000000000000000000000000000000000000000008152600401611baa9190612d81565b60405180910390fd5b80600160008573ffffffffffffffffffffffffffffffffffffffff1673ffffffffffffffffffffffffffffffffffffffff16815260200190815260200160002060008473ffffffffffffffffffffffffffffffffffffffff1673ffffffffffffffffffffffffffffffffffffffff16815260200190815260200160002060006101000a81548160ff0219169083151502179055508173ffffffffffffffffffffffffffffffffffffffff168373ffffffffffffffffffffffffffffffffffffffff167f17307eab39ab6107e8899845ad3d59bd9653f200f220920489ca2b5937696c3183604051611ca49190612751565b60405180910390a3505050565b600073ffffffffffffffffffffffffffffffffffffffff168473ffffffffffffffffffffffffffffffffffffffff1603611d235760006040517f57f447ce000000000000000000000000000000000000000000000000000000008152600401611d1a9190612d81565b60405180910390fd5b600080611d308585611d4a565b91509150611d42600087848487611d7a565b505050505050565b60608060405191506001825283602083015260408201905060018152826020820152604081016040529250929050565b611d8685858585611e2c565b600073ffffffffffffffffffffffffffffffffffffffff168473ffffffffffffffffffffffffffffffffffffffff1614611e25576000611dc46118cc565b90506001845103611e14576000611de5600086611a6790919063ffffffff16565b90506000611dfd600086611a6790919063ffffffff16565b9050611e0d8389898585896121da565b5050611e23565b611e2281878787878761238e565b5b505b5050505050565b8051825114611e7657815181516040517f5b059991000000000000000000000000000000000000000000000000000000008152600401611e6d9291906136b0565b60405180910390fd5b6000611e806118cc565b905060005b8351811015612095576000611ea38286611a6790919063ffffffff16565b90506000611eba8386611a6790919063ffffffff16565b9050600073ffffffffffffffffffffffffffffffffffffffff168873ffffffffffffffffffffffffffffffffffffffff1614611fe757600080600084815260200190815260200160002060008a73ffffffffffffffffffffffffffffffffffffffff1673ffffffffffffffffffffffffffffffffffffffff16815260200190815260200160002054905081811015611f8f57888183856040517f03dee4c5000000000000000000000000000000000000000000000000000000008152600401611f869493929190613bf4565b60405180910390fd5b81810360008085815260200190815260200160002060008b73ffffffffffffffffffffffffffffffffffffffff1673ffffffffffffffffffffffffffffffffffffffff16815260200190815260200160002081905550505b600073ffffffffffffffffffffffffffffffffffffffff168773ffffffffffffffffffffffffffffffffffffffff1614612082578060008084815260200190815260200160002060008973ffffffffffffffffffffffffffffffffffffffff1673ffffffffffffffffffffffffffffffffffffffff168152602001908152602001600020600082825461207a9190613c39565b925050819055505b50508061208e90613708565b9050611e85565b5060018351036121545760006120b5600085611a6790919063ffffffff16565b905060006120cd600085611a6790919063ffffffff16565b90508573ffffffffffffffffffffffffffffffffffffffff168773ffffffffffffffffffffffffffffffffffffffff168473ffffffffffffffffffffffffffffffffffffffff167fc3d58168c5ae7397731d063d5bbf3d657854427343f4c083240f7aacaa2d0f6285856040516121459291906136b0565b60405180910390a450506121d3565b8373ffffffffffffffffffffffffffffffffffffffff168573ffffffffffffffffffffffffffffffffffffffff168273ffffffffffffffffffffffffffffffffffffffff167f4a39dc06d4c0dbc64b70af90fd698a233a518aa5d07e595d983b8c0526c8f7fb86866040516121ca929190613c6d565b60405180910390a45b5050505050565b60008473ffffffffffffffffffffffffffffffffffffffff163b1115612386578373ffffffffffffffffffffffffffffffffffffffff1663f23a6e6187878686866040518663ffffffff1660e01b815260040161223b959493929190613cf9565b6020604051808303816000875af192505050801561227757506040513d601f19601f820116820180604052508101906122749190613d68565b60015b6122fb573d80600081146122a7576040519150601f19603f3d011682016040523d82523d6000602084013e6122ac565b606091505b5060008151036122f357846040517f57f447ce0000000000000000000000000000000000000000000000000000000081526004016122ea9190612d81565b60405180910390fd5b805181602001fd5b63f23a6e6160e01b7bffffffffffffffffffffffffffffffffffffffffffffffffffffffff1916817bffffffffffffffffffffffffffffffffffffffffffffffffffffffff19161461238457846040517f57f447ce00000000000000000000000000000000000000000000000000000000815260040161237b9190612d81565b60405180910390fd5b505b505050505050565b60008473ffffffffffffffffffffffffffffffffffffffff163b111561253a578373ffffffffffffffffffffffffffffffffffffffff1663bc197c8187878686866040518663ffffffff1660e01b81526004016123ef959493929190613d95565b6020604051808303816000875af192505050801561242b57506040513d601f19601f820116820180604052508101906124289190613d68565b60015b6124af573d806000811461245b576040519150601f19603f3d011682016040523d82523d6000602084013e612460565b606091505b5060008151036124a757846040517f57f447ce00000000000000000000000000000000000000000000000000000000815260040161249e9190612d81565b60405180910390fd5b805181602001fd5b63bc197c8160e01b7bffffffffffffffffffffffffffffffffffffffffffffffffffffffff1916817bffffffffffffffffffffffffffffffffffffffffffffffffffffffff19161461253857846040517f57f447ce00000000000000000000000000000000000000000000000000000000815260040161252f9190612d81565b60405180910390fd5b505b505050505050565b604051806101000160405280600081526020016060815260200160608152602001600073ffffffffffffffffffffffffffffffffffffffff1681526020016000815260200160008152602001600015158152602001606081525090565b6000604051905090565b600080fd5b600080fd5b600073ffffffffffffffffffffffffffffffffffffffff82169050919050565b60006125de826125b3565b9050919050565b6125ee816125d3565b81146125f957600080fd5b50565b60008135905061260b816125e5565b92915050565b6000819050919050565b61262481612611565b811461262f57600080fd5b50565b6000813590506126418161261b565b92915050565b6000806040838503121561265e5761265d6125a9565b5b600061266c858286016125fc565b925050602061267d85828601612632565b9150509250929050565b61269081612611565b82525050565b60006020820190506126ab6000830184612687565b92915050565b60007fffffffff0000000000000000000000000000000000000000000000000000000082169050919050565b6126e6816126b1565b81146126f157600080fd5b50565b600081359050612703816126dd565b92915050565b60006020828403121561271f5761271e6125a9565b5b600061272d848285016126f4565b91505092915050565b60008115159050919050565b61274b81612736565b82525050565b60006020820190506127666000830184612742565b92915050565b600060208284031215612782576127816125a9565b5b600061279084828501612632565b91505092915050565b600081519050919050565b600082825260208201905092915050565b60005b838110156127d35780820151818401526020810190506127b8565b60008484015250505050565b6000601f19601f8301169050919050565b60006127fb82612799565b61280581856127a4565b93506128158185602086016127b5565b61281e816127df565b840191505092915050565b6000602082019050818103600083015261284381846127f0565b905092915050565b60008060408385031215612862576128616125a9565b5b600061287085828601612632565b925050602061288185828601612632565b9150509250929050565b600080fd5b7f4e487b7100000000000000000000000000000000000000000000000000000000600052604160045260246000fd5b6128c8826127df565b810181811067ffffffffffffffff821117156128e7576128e6612890565b5b80604052505050565b60006128fa61259f565b905061290682826128bf565b919050565b600067ffffffffffffffff82111561292657612925612890565b5b602082029050602081019050919050565b600080fd5b600061294f61294a8461290b565b6128f0565b9050808382526020820190506020840283018581111561297257612971612937565b5b835b8181101561299b57806129878882612632565b845260208401935050602081019050612974565b5050509392505050565b600082601f8301126129ba576129b961288b565b5b81356129ca84826020860161293c565b91505092915050565b600080fd5b600067ffffffffffffffff8211156129f3576129f2612890565b5b6129fc826127df565b9050602081019050919050565b82818337600083830152505050565b6000612a2b612a26846129d8565b6128f0565b905082815260208101848484011115612a4757612a466129d3565b5b612a52848285612a09565b509392505050565b600082601f830112612a6f57612a6e61288b565b5b8135612a7f848260208601612a18565b91505092915050565b600080600080600060a08688031215612aa457612aa36125a9565b5b6000612ab2888289016125fc565b9550506020612ac3888289016125fc565b945050604086013567ffffffffffffffff811115612ae457612ae36125ae565b5b612af0888289016129a5565b935050606086013567ffffffffffffffff811115612b1157612b106125ae565b5b612b1d888289016129a5565b925050608086013567ffffffffffffffff811115612b3e57612b3d6125ae565b5b612b4a88828901612a5a565b9150509295509295909350565b600067ffffffffffffffff821115612b7257612b71612890565b5b602082029050602081019050919050565b6000612b96612b9184612b57565b6128f0565b90508083825260208201905060208402830185811115612bb957612bb8612937565b5b835b81811015612be25780612bce88826125fc565b845260208401935050602081019050612bbb565b5050509392505050565b600082601f830112612c0157612c0061288b565b5b8135612c11848260208601612b83565b91505092915050565b60008060408385031215612c3157612c306125a9565b5b600083013567ffffffffffffffff811115612c4f57612c4e6125ae565b5b612c5b85828601612bec565b925050602083013567ffffffffffffffff811115612c7c57612c7b6125ae565b5b612c88858286016129a5565b9150509250929050565b600081519050919050565b600082825260208201905092915050565b6000819050602082019050919050565b612cc781612611565b82525050565b6000612cd98383612cbe565b60208301905092915050565b6000602082019050919050565b6000612cfd82612c92565b612d078185612c9d565b9350612d1283612cae565b8060005b83811015612d43578151612d2a8882612ccd565b9750612d3583612ce5565b925050600181019050612d16565b5085935050505092915050565b60006020820190508181036000830152612d6a8184612cf2565b905092915050565b612d7b816125d3565b82525050565b6000602082019050612d966000830184612d72565b92915050565b6000612da7826125b3565b9050919050565b612db781612d9c565b82525050565b600061010082019050612dd3600083018b612687565b8181036020830152612de5818a6127f0565b90508181036040830152612df981896127f0565b9050612e086060830188612dae565b612e156080830187612687565b612e2260a0830186612687565b612e2f60c0830185612742565b81810360e0830152612e4181846127f0565b90509998505050505050505050565b612e5981612736565b8114612e6457600080fd5b50565b600081359050612e7681612e50565b92915050565b60008060408385031215612e9357612e926125a9565b5b6000612ea1858286016125fc565b9250506020612eb285828601612e67565b9150509250929050565b600067ffffffffffffffff821115612ed757612ed6612890565b5b612ee0826127df565b9050602081019050919050565b6000612f00612efb84612ebc565b6128f0565b905082815260208101848484011115612f1c57612f1b6129d3565b5b612f27848285612a09565b509392505050565b600082601f830112612f4457612f4361288b565b5b8135612f54848260208601612eed565b91505092915050565b60008060008060008060c08789031215612f7a57612f796125a9565b5b600087013567ffffffffffffffff811115612f9857612f976125ae565b5b612fa489828a01612f2f565b965050602087013567ffffffffffffffff811115612fc557612fc46125ae565b5b612fd189828a01612f2f565b9550506040612fe289828a01612632565b9450506060612ff389828a01612632565b935050608061300489828a01612632565b92505060a087013567ffffffffffffffff811115613025576130246125ae565b5b61303189828a01612f2f565b9150509295509295509295565b60008060408385031215613055576130546125a9565b5b6000613063858286016125fc565b9250506020613074858286016125fc565b9150509250929050565b600081519050919050565b600082825260208201905092915050565b6000819050602082019050919050565b600082825260208201905092915050565b60006130c682612799565b6130d081856130aa565b93506130e08185602086016127b5565b6130e9816127df565b840191505092915050565b6130fd81612d9c565b82525050565b61310c81612736565b82525050565b60006101008301600083015161312b6000860182612cbe565b506020830151848203602086015261314382826130bb565b9150506040830151848203604086015261315d82826130bb565b915050606083015161317260608601826130f4565b5060808301516131856080860182612cbe565b5060a083015161319860a0860182612cbe565b5060c08301516131ab60c0860182613103565b5060e083015184820360e08601526131c382826130bb565b9150508091505092915050565b60006131dc8383613112565b905092915050565b6000602082019050919050565b60006131fc8261307e565b6132068185613089565b9350836020820285016132188561309a565b8060005b85811015613254578484038952815161323585826131d0565b9450613240836131e4565b925060208a0199505060018101905061321c565b50829750879550505050505092915050565b6000602082019050818103600083015261328081846131f1565b905092915050565b600080600080600060a086880312156132a4576132a36125a9565b5b60006132b2888289016125fc565b95505060206132c3888289016125fc565b94505060406132d488828901612632565b93505060606132e588828901612632565b925050608086013567ffffffffffffffff811115613306576133056125ae565b5b61331288828901612a5a565b9150509295509295909350565b600060208284031215613335576133346125a9565b5b6000613343848285016125fc565b91505092915050565b7f4e487b7100000000000000000000000000000000000000000000000000000000600052602260045260246000fd5b6000600282049050600182168061339357607f821691505b6020821081036133a6576133a561334c565b5b50919050565b7f44657369676e206e6f7420617661696c61626c6520666f722073616c65000000600082015250565b60006133e2601d836127a4565b91506133ed826133ac565b602082019050919050565b60006020820190508181036000830152613411816133d5565b9050919050565b7f4e487b7100000000000000000000000000000000000000000000000000000000600052601160045260246000fd5b600061345282612611565b915061345d83612611565b925082820261346b81612611565b9150828204841483151761348257613481613418565b5b5092915050565b7f496e73756666696369656e742045746865720000000000000000000000000000600082015250565b60006134bf6012836127a4565b91506134ca82613489565b602082019050919050565b600060208201905081810360008301526134ee816134b2565b9050919050565b7f4e6f7420656e6f7567682064657369676e7320617661696c61626c6500000000600082015250565b600061352b601c836127a4565b9150613536826134f5565b602082019050919050565b6000602082019050818103600083015261355a8161351e565b9050919050565b7f4e487b7100000000000000000000000000000000000000000000000000000000600052601260045260246000fd5b600061359b82612611565b91506135a683612611565b9250826135b6576135b5613561565b5b828204905092915050565b60006135cc82612611565b91506135d783612611565b92508282039050818111156135ef576135ee613418565b5b92915050565b600060408201905061360a6000830185612d72565b6136176020830184612d72565b9392505050565b7f4e6f20457468657220617661696c61626c6520666f722077697468647261776160008201527f6c00000000000000000000000000000000000000000000000000000000000000602082015250565b600061367a6021836127a4565b91506136858261361e565b604082019050919050565b600060208201905081810360008301526136a98161366d565b9050919050565b60006040820190506136c56000830185612687565b6136d26020830184612687565b9392505050565b7f4e487b7100000000000000000000000000000000000000000000000000000000600052603260045260246000fd5b600061371382612611565b91507fffffffffffffffffffffffffffffffffffffffffffffffffffffffffffffffff820361374557613744613418565b5b600182019050919050565b7f4e616d6520726571756972656400000000000000000000000000000000000000600082015250565b6000613786600d836127a4565b915061379182613750565b602082019050919050565b600060208201905081810360008301526137b581613779565b9050919050565b7f43617465676f7279207265717569726564000000000000000000000000000000600082015250565b60006137f26011836127a4565b91506137fd826137bc565b602082019050919050565b60006020820190508181036000830152613821816137e5565b9050919050565b7f5072696365206d7573742062652067726561746572207468616e207a65726f00600082015250565b600061385e601f836127a4565b915061386982613828565b602082019050919050565b6000602082019050818103600083015261388d81613851565b9050919050565b7f416d6f756e74206d7573742062652067726561746572207468616e207a65726f600082015250565b60006138ca6020836127a4565b91506138d582613894565b602082019050919050565b600060208201905081810360008301526138f9816138bd565b9050919050565b60008190508160005260206000209050919050565b60006020601f8301049050919050565b600082821b905092915050565b6000600883026139627fffffffffffffffffffffffffffffffffffffffffffffffffffffffffffffffff82613925565b61396c8683613925565b95508019841693508086168417925050509392505050565b6000819050919050565b60006139a96139a461399f84612611565b613984565b612611565b9050919050565b6000819050919050565b6139c38361398e565b6139d76139cf826139b0565b848454613932565b825550505050565b600090565b6139ec6139df565b6139f78184846139ba565b505050565b5b81811015613a1b57613a106000826139e4565b6001810190506139fd565b5050565b601f821115613a6057613a3181613900565b613a3a84613915565b81016020851015613a49578190505b613a5d613a5585613915565b8301826139fc565b50505b505050565b600082821c905092915050565b6000613a8360001984600802613a65565b1980831691505092915050565b6000613a9c8383613a72565b9150826002028217905092915050565b613ab582612799565b67ffffffffffffffff811115613ace57613acd612890565b5b613ad8825461337b565b613ae3828285613a1f565b600060209050601f831160018114613b165760008415613b04578287015190505b613b0e8582613a90565b865550613b76565b601f198416613b2486613900565b60005b82811015613b4c57848901518255600182019150602085019450602081019050613b27565b86831015613b695784890151613b65601f891682613a72565b8355505b6001600288020188555050505b505050505050565b600060c0820190508181036000830152613b9881896127f0565b90508181036020830152613bac81886127f0565b9050613bbb6040830187612687565b613bc86060830186612687565b613bd56080830185612687565b81810360a0830152613be781846127f0565b9050979650505050505050565b6000608082019050613c096000830187612d72565b613c166020830186612687565b613c236040830185612687565b613c306060830184612687565b95945050505050565b6000613c4482612611565b9150613c4f83612611565b9250828201905080821115613c6757613c66613418565b5b92915050565b60006040820190508181036000830152613c878185612cf2565b90508181036020830152613c9b8184612cf2565b90509392505050565b600081519050919050565b600082825260208201905092915050565b6000613ccb82613ca4565b613cd58185613caf565b9350613ce58185602086016127b5565b613cee816127df565b840191505092915050565b600060a082019050613d0e6000830188612d72565b613d1b6020830187612d72565b613d286040830186612687565b613d356060830185612687565b8181036080830152613d478184613cc0565b90509695505050505050565b600081519050613d62816126dd565b92915050565b600060208284031215613d7e57613d7d6125a9565b5b6000613d8c84828501613d53565b91505092915050565b600060a082019050613daa6000830188612d72565b613db76020830187612d72565b8181036040830152613dc98186612cf2565b90508181036060830152613ddd8185612cf2565b90508181036080830152613df18184613cc0565b9050969550505050505056fea2646970667358221220dc6c1b34e0257adae25987b10ec93c265d7429de47c1946f66212fb5cdca46a164736f6c63430008140033",
  "linkReferences": {},
  "deployedLinkReferences": {}
}