{
  "_format": "hh-sol-artifact-1",
  "contractName": "CS",
  "sourceName": "contracts/CS.sol",
  "abi": [
    {
      "inputs": [],
      "stateMutability": "nonpayable",
      "type": "constructor"
    },
    {
      "inputs": [
        {
          "internalType": "address",
          "name": "sender",
          "type": "address"
        },
        {
          "internalType": "uint256",
          "name": "balance",
          "type": "uint256"
        },
        {
          "internalType": "uint256",
          "name": "needed",
          "type": "uint256"
        },
        {
          "internalType": "uint256",
          "name": "tokenId",
          "type": "uint256"
        }
      ],
      "name": "ERC1155InsufficientBalance",
      "type": "error"
    },
    {
      "inputs": [
        {
          "internalType": "address",
          "name": "approver",
          "type": "address"
        }
      ],
      "name": "ERC1155InvalidApprover",
      "type": "error"
    },
    {
      "inputs": [
        {
          "internalType": "uint256",
          "name": "idsLength",
          "type": "uint256"
        },
        {
          "internalType": "uint256",
          "name": "valuesLength",
          "type": "uint256"
        }
      ],
      "name": "ERC1155InvalidArrayLength",
      "type": "error"
    },
    {
      "inputs": [
        {
          "internalType": "address",
          "name": "operator",
          "type": "address"
        }
      ],
      "name": "ERC1155InvalidOperator",
      "type": "error"
    },
    {
      "inputs": [
        {
          "internalType": "address",
          "name": "receiver",
          "type": "address"
        }
      ],
      "name": "ERC1155InvalidReceiver",
      "type": "error"
    },
    {
      "inputs": [
        {
          "internalType": "address",
          "name": "sender",
          "type": "address"
        }
      ],
      "name": "ERC1155InvalidSender",
      "type": "error"
    },
    {
      "inputs": [
        {
          "internalType": "address",
          "name": "operator",
          "type": "address"
        },
        {
          "internalType": "address",
          "name": "owner",
          "type": "address"
        }
      ],
      "name": "ERC1155MissingApprovalForAll",
      "type": "error"
    },
    {
      "inputs": [
        {
          "internalType": "address",
          "name": "owner",
          "type": "address"
        }
      ],
      "name": "OwnableInvalidOwner",
      "type": "error"
    },
    {
      "inputs": [
        {
          "internalType": "address",
          "name": "account",
          "type": "address"
        }
      ],
      "name": "OwnableUnauthorizedAccount",
      "type": "error"
    },
    {
      "anonymous": false,
      "inputs": [
        {
          "indexed": true,
          "internalType": "address",
          "name": "account",
          "type": "address"
        },
        {
          "indexed": true,
          "internalType": "address",
          "name": "operator",
          "type": "address"
        },
        {
          "indexed": false,
          "internalType": "bool",
          "name": "approved",
          "type": "bool"
        }
      ],
      "name": "ApprovalForAll",
      "type": "event"
    },
    {
      "anonymous": false,
      "inputs": [
        {
          "indexed": true,
          "internalType": "uint256",
          "name": "tokenId",
          "type": "uint256"
        },
        {
          "indexed": true,
          "internalType": "address",
          "name": "buyer",
          "type": "address"
        },
        {
          "indexed": true,
          "internalType": "address",
          "name": "seller",
          "type": "address"
        },
        {
          "indexed": false,
          "internalType": "uint256",
          "name": "price",
          "type": "uint256"
        }
      ],
      "name": "DesignBought",
      "type": "event"
    },
    {
      "anonymous": false,
      "inputs": [
        {
          "indexed": true,
          "internalType": "uint256",
          "name": "tokenId",
          "type": "uint256"
        },
        {
          "indexed": true,
          "internalType": "address",
          "name": "creator",
          "type": "address"
        },
        {
          "indexed": false,
          "internalType": "string",
          "name": "name",
          "type": "string"
        },
        {
          "indexed": false,
          "internalType": "string",
          "name": "category",
          "type": "string"
        },
        {
          "indexed": false,
          "internalType": "uint256",
          "name": "price",
          "type": "uint256"
        },
        {
          "indexed": false,
          "internalType": "uint256",
          "name": "amount",
          "type": "uint256"
        },
        {
          "indexed": false,
          "internalType": "uint256",
          "name": "royalty",
          "type": "uint256"
        },
        {
          "indexed": false,
          "internalType": "string",
          "name": "imageURI",
          "type": "string"
        }
      ],
      "name": "DesignUploaded",
      "type": "event"
    },
    {
      "anonymous": false,
      "inputs": [
        {
          "indexed": true,
          "internalType": "address",
          "name": "previousOwner",
          "type": "address"
        },
        {
          "indexed": true,
          "internalType": "address",
          "name": "newOwner",
          "type": "address"
        }
      ],
      "name": "OwnershipTransferred",
      "type": "event"
    },
    {
      "anonymous": false,
      "inputs": [
        {
          "indexed": true,
          "internalType": "address",
          "name": "operator",
          "type": "address"
        },
        {
          "indexed": true,
          "internalType": "address",
          "name": "from",
          "type": "address"
        },
        {
          "indexed": true,
          "internalType": "address",
          "name": "to",
          "type": "address"
        },
        {
          "indexed": false,
          "internalType": "uint256[]",
          "name": "ids",
          "type": "uint256[]"
        },
        {
          "indexed": false,
          "internalType": "uint256[]",
          "name": "values",
          "type": "uint256[]"
        }
      ],
      "name": "TransferBatch",
      "type": "event"
    },
    {
      "anonymous": false,
      "inputs": [
        {
          "indexed": true,
          "internalType": "address",
          "name": "operator",
          "type": "address"
        },
        {
          "indexed": true,
          "internalType": "address",
          "name": "from",
          "type": "address"
        },
        {
          "indexed": true,
          "internalType": "address",
          "name": "to",
          "type": "address"
        },
        {
          "indexed": false,
          "internalType": "uint256",
          "name": "id",
          "type": "uint256"
        },
        {
          "indexed": false,
          "internalType": "uint256",
          "name": "value",
          "type": "uint256"
        }
      ],
      "name": "TransferSingle",
      "type": "event"
    },
    {
      "anonymous": false,
      "inputs": [
        {
          "indexed": false,
          "internalType": "string",
          "name": "value",
          "type": "string"
        },
        {
          "indexed": true,
          "internalType": "uint256",
          "name": "id",
          "type": "uint256"
        }
      ],
      "name": "URI",
      "type": "event"
    },
    {
      "inputs": [
        {
          "internalType": "address",
          "name": "account",
          "type": "address"
        },
        {
          "internalType": "uint256",
          "name": "id",
          "type": "uint256"
        }
      ],
      "name": "balanceOf",
      "outputs": [
        {
          "internalType": "uint256",
          "name": "",
          "type": "uint256"
        }
      ],
      "stateMutability": "view",
      "type": "function"
    },
    {
      "inputs": [
        {
          "internalType": "address[]",
          "name": "accounts",
          "type": "address[]"
        },
        {
          "internalType": "uint256[]",
          "name": "ids",
          "type": "uint256[]"
        }
      ],
      "name": "balanceOfBatch",
      "outputs": [
        {
          "internalType": "uint256[]",
          "name": "",
          "type": "uint256[]"
        }
      ],
      "stateMutability": "view",
      "type": "function"
    },
    {
      "inputs": [
        {
          "internalType": "uint256",
          "name": "_tokenId",
          "type": "uint256"
        },
        {
          "internalType": "uint256",
          "name": "_amount",
          "type": "uint256"
        }
      ],
      "name": "buyDesign",
      "outputs": [],
      "stateMutability": "payable",
      "type": "function"
    },
    {
      "inputs": [
        {
          "internalType": "uint256",
          "name": "",
          "type": "uint256"
        }
      ],
      "name": "designs",
      "outputs": [
        {
          "internalType": "uint256",
          "name": "tokenId",
          "type": "uint256"
        },
        {
          "internalType": "string",
          "name": "name",
          "type": "string"
        },
        {
          "internalType": "string",
          "name": "category",
          "type": "string"
        },
        {
          "internalType": "address payable",
          "name": "creator",
          "type": "address"
        },
        {
          "internalType": "uint256",
          "name": "price",
          "type": "uint256"
        },
        {
          "internalType": "uint256",
          "name": "royalty",
          "type": "uint256"
        },
        {
          "internalType": "bool",
          "name": "isListed",
          "type": "bool"
        },
        {
          "internalType": "string",
          "name": "imageURI",
          "type": "string"
        }
      ],
      "stateMutability": "view",
      "type": "function"
    },
    {
      "inputs": [
        {
          "internalType": "address",
          "name": "account",
          "type": "address"
        },
        {
          "internalType": "address",
          "name": "operator",
          "type": "address"
        }
      ],
      "name": "isApprovedForAll",
      "outputs": [
        {
          "internalType": "bool",
          "name": "",
          "type": "bool"
        }
      ],
      "stateMutability": "view",
      "type": "function"
    },
    {
      "inputs": [],
      "name": "listingFee",
      "outputs": [
        {
          "internalType": "uint256",
          "name": "",
          "type": "uint256"
        }
      ],
      "stateMutability": "view",
      "type": "function"
    },
    {
      "inputs": [],
      "name": "myPersonalWardrobe",
      "outputs": [
        {
          "components": [
            {
              "internalType": "uint256",
              "name": "tokenId",
              "type": "uint256"
            },
            {
              "internalType": "string",
              "name": "name",
              "type": "string"
            },
            {
              "internalType": "string",
              "name": "category",
              "type": "string"
            },
            {
              "internalType": "address payable",
              "name": "creator",
              "type": "address"
            },
            {
              "internalType": "uint256",
              "name": "price",
              "type": "uint256"
            },
            {
              "internalType": "uint256",
              "name": "royalty",
              "type": "uint256"
            },
            {
              "internalType": "bool",
              "name": "isListed",
              "type": "bool"
            },
            {
              "internalType": "string",
              "name": "imageURI",
              "type": "string"
            }
          ],
          "internalType": "struct CS.Design[]",
          "name": "",
          "type": "tuple[]"
        }
      ],
      "stateMutability": "view",
      "type": "function"
    },
    {
      "inputs": [],
      "name": "nextTokenId",
      "outputs": [
        {
          "internalType": "uint256",
          "name": "",
          "type": "uint256"
        }
      ],
      "stateMutability": "view",
      "type": "function"
    },
    {
      "inputs": [
        {
          "internalType": "address",
          "name": "",
          "type": "address"
        },
        {
          "internalType": "uint256",
          "name": "",
          "type": "uint256"
        }
      ],
      "name": "ownedDesigns",
      "outputs": [
        {
          "internalType": "uint256",
          "name": "",
          "type": "uint256"
        }
      ],
      "stateMutability": "view",
      "type": "function"
    },
    {
      "inputs": [],
      "name": "owner",
      "outputs": [
        {
          "internalType": "address",
          "name": "",
          "type": "address"
        }
      ],
      "stateMutability": "view",
      "type": "function"
    },
    {
      "inputs": [],
      "name": "renounceOwnership",
      "outputs": [],
      "stateMutability": "nonpayable",
      "type": "function"
    },
    {
      "inputs": [
        {
          "internalType": "address",
          "name": "from",
          "type": "address"
        },
        {
          "internalType": "address",
          "name": "to",
          "type": "address"
        },
        {
          "internalType": "uint256[]",
          "name": "ids",
          "type": "uint256[]"
        },
        {
          "internalType": "uint256[]",
          "name": "values",
          "type": "uint256[]"
        },
        {
          "internalType": "bytes",
          "name": "data",
          "type": "bytes"
        }
      ],
      "name": "safeBatchTransferFrom",
      "outputs": [],
      "stateMutability": "nonpayable",
      "type": "function"
    },
    {
      "inputs": [
        {
          "internalType": "address",
          "name": "from",
          "type": "address"
        },
        {
          "internalType": "address",
          "name": "to",
          "type": "address"
        },
        {
          "internalType": "uint256",
          "name": "id",
          "type": "uint256"
        },
        {
          "internalType": "uint256",
          "name": "value",
          "type": "uint256"
        },
        {
          "internalType": "bytes",
          "name": "data",
          "type": "bytes"
        }
      ],
      "name": "safeTransferFrom",
      "outputs": [],
      "stateMutability": "nonpayable",
      "type": "function"
    },
    {
      "inputs": [
        {
          "internalType": "address",
          "name": "operator",
          "type": "address"
        },
        {
          "internalType": "bool",
          "name": "approved",
          "type": "bool"
        }
      ],
      "name": "setApprovalForAll",
      "outputs": [],
      "stateMutability": "nonpayable",
      "type": "function"
    },
    {
      "inputs": [
        {
          "internalType": "bytes4",
          "name": "interfaceId",
          "type": "bytes4"
        }
      ],
      "name": "supportsInterface",
      "outputs": [
        {
          "internalType": "bool",
          "name": "",
          "type": "bool"
        }
      ],
      "stateMutability": "view",
      "type": "function"
    },
    {
      "inputs": [
        {
          "internalType": "address",
          "name": "newOwner",
          "type": "address"
        }
      ],
      "name": "transferOwnership",
      "outputs": [],
      "stateMutability": "nonpayable",
      "type": "function"
    },
    {
      "inputs": [
        {
          "internalType": "string",
          "name": "_name",
          "type": "string"
        },
        {
          "internalType": "string",
          "name": "_category",
          "type": "string"
        },
        {
          "internalType": "uint256",
          "name": "_price",
          "type": "uint256"
        },
        {
          "internalType": "uint256",
          "name": "_amount",
          "type": "uint256"
        },
        {
          "internalType": "uint256",
          "name": "_royalty",
          "type": "uint256"
        },
        {
          "internalType": "string",
          "name": "_imageURI",
          "type": "string"
        }
      ],
      "name": "uploadDesign",
      "outputs": [],
      "stateMutability": "nonpayable",
      "type": "function"
    },
    {
      "inputs": [
        {
          "internalType": "uint256",
          "name": "",
          "type": "uint256"
        }
      ],
      "name": "uri",
      "outputs": [
        {
          "internalType": "string",
          "name": "",
          "type": "string"
        }
      ],
      "stateMutability": "view",
      "type": "function"
    },
    {
      "inputs": [],
      "name": "withdraw",
      "outputs": [],
      "stateMutability": "nonpayable",
      "type": "function"
    }
  ],
  "bytecode": "0x60806040523480156200001157600080fd5b5033604051806020016040528060008152506200003481620000c260201b60201c565b50600073ffffffffffffffffffffffffffffffffffffffff168173ffffffffffffffffffffffffffffffffffffffff1603620000aa5760006040517f1e4fbdf7000000000000000000000000000000000000000000000000000000008152600401620000a19190620001e2565b60405180910390fd5b620000bb81620000d760201b60201c565b5062000560565b8060029081620000d3919062000479565b5050565b6000600360009054906101000a900473ffffffffffffffffffffffffffffffffffffffff16905081600360006101000a81548173ffffffffffffffffffffffffffffffffffffffff021916908373ffffffffffffffffffffffffffffffffffffffff1602179055508173ffffffffffffffffffffffffffffffffffffffff168173ffffffffffffffffffffffffffffffffffffffff167f8be0079c531659141344cd1fd0a4f28419497f9722a3daafe3b4186f6b6457e060405160405180910390a35050565b600073ffffffffffffffffffffffffffffffffffffffff82169050919050565b6000620001ca826200019d565b9050919050565b620001dc81620001bd565b82525050565b6000602082019050620001f96000830184620001d1565b92915050565b600081519050919050565b7f4e487b7100000000000000000000000000000000000000000000000000000000600052604160045260246000fd5b7f4e487b7100000000000000000000000000000000000000000000000000000000600052602260045260246000fd5b600060028204905060018216806200028157607f821691505b60208210810362000297576200029662000239565b5b50919050565b60008190508160005260206000209050919050565b60006020601f8301049050919050565b600082821b905092915050565b600060088302620003017fffffffffffffffffffffffffffffffffffffffffffffffffffffffffffffffff82620002c2565b6200030d8683620002c2565b95508019841693508086168417925050509392505050565b6000819050919050565b6000819050919050565b60006200035a620003546200034e8462000325565b6200032f565b62000325565b9050919050565b6000819050919050565b620003768362000339565b6200038e620003858262000361565b848454620002cf565b825550505050565b600090565b620003a562000396565b620003b28184846200036b565b505050565b5b81811015620003da57620003ce6000826200039b565b600181019050620003b8565b5050565b601f8211156200042957620003f3816200029d565b620003fe84620002b2565b810160208510156200040e578190505b620004266200041d85620002b2565b830182620003b7565b50505b505050565b600082821c905092915050565b60006200044e600019846008026200042e565b1980831691505092915050565b60006200046983836200043b565b9150826002028217905092915050565b6200048482620001ff565b67ffffffffffffffff811115620004a0576200049f6200020a565b5b620004ac825462000268565b620004b9828285620003de565b600060209050601f831160018114620004f15760008415620004dc578287015190505b620004e885826200045b565b86555062000558565b601f19841662000501866200029d565b60005b828110156200052b5784890151825560018201915060208501945060208101905062000504565b868310156200054b578489015162000547601f8916826200043b565b8355505b6001600288020188555050505b505050505050565b613d7580620005706000396000f3fe6080604052600436106101135760003560e01c806375794a3c116100a0578063c555f67011610064578063c555f670146103aa578063e985e9c5146103d3578063eb3d3e4b14610410578063f242432a1461043b578063f2fde38b1461046457610113565b806375794a3c146102aa57806377ecc872146102d55780638da5cb5b1461031257806390ac11a31461033d578063a22cb4651461038157610113565b80632eb2c2d6116100e75780632eb2c2d6146101eb5780633ccfd60b146102145780634e1273f41461022b5780636a1b7ecc14610268578063715018a61461029357610113565b8062fdd58e1461011857806301ffc9a7146101555780630e89341c1461019257806325b26494146101cf575b600080fd5b34801561012457600080fd5b5061013f600480360381019061013a91906125f5565b61048d565b60405161014c9190612644565b60405180910390f35b34801561016157600080fd5b5061017c600480360381019061017791906126b7565b6104e7565b60405161018991906126ff565b60405180910390f35b34801561019e57600080fd5b506101b960048036038101906101b4919061271a565b6105c9565b6040516101c691906127d7565b60405180910390f35b6101e960048036038101906101e491906127f9565b61065d565b005b3480156101f757600080fd5b50610212600480360381019061020d9190612a36565b6109c1565b005b34801561022057600080fd5b50610229610a69565b005b34801561023757600080fd5b50610252600480360381019061024d9190612bc8565b610b0a565b60405161025f9190612cfe565b60405180910390f35b34801561027457600080fd5b5061027d610c19565b60405161028a9190612644565b60405180910390f35b34801561029f57600080fd5b506102a8610c24565b005b3480156102b657600080fd5b506102bf610c38565b6040516102cc9190612644565b60405180910390f35b3480156102e157600080fd5b506102fc60048036038101906102f791906125f5565b610c3e565b6040516103099190612644565b60405180910390f35b34801561031e57600080fd5b50610327610c6f565b6040516103349190612d2f565b60405180910390f35b34801561034957600080fd5b50610364600480360381019061035f919061271a565b610c99565b604051610378989796959493929190612d6b565b60405180910390f35b34801561038d57600080fd5b506103a860048036038101906103a39190612e2a565b610ea6565b005b3480156103b657600080fd5b506103d160048036038101906103cc9190612f0b565b610ebc565b005b3480156103df57600080fd5b506103fa60048036038101906103f59190612fec565b611192565b60405161040791906126ff565b60405180910390f35b34801561041c57600080fd5b50610425611226565b6040516104329190613214565b60405180910390f35b34801561044757600080fd5b50610462600480360381019061045d9190613236565b6115d7565b005b34801561047057600080fd5b5061048b600480360381019061048691906132cd565b61167f565b005b600080600083815260200190815260200160002060008473ffffffffffffffffffffffffffffffffffffffff1673ffffffffffffffffffffffffffffffffffffffff16815260200190815260200160002054905092915050565b60007fd9b67a26000000000000000000000000000000000000000000000000000000007bffffffffffffffffffffffffffffffffffffffffffffffffffffffff1916827bffffffffffffffffffffffffffffffffffffffffffffffffffffffff191614806105b257507f0e89341c000000000000000000000000000000000000000000000000000000007bffffffffffffffffffffffffffffffffffffffffffffffffffffffff1916827bffffffffffffffffffffffffffffffffffffffffffffffffffffffff1916145b806105c257506105c182611705565b5b9050919050565b6060600280546105d890613329565b80601f016020809104026020016040519081016040528092919081815260200182805461060490613329565b80156106515780601f1061062657610100808354040283529160200191610651565b820191906000526020600020905b81548152906001019060200180831161063457829003601f168201915b50505050509050919050565b60006005600084815260200190815260200160002090508060060160009054906101000a900460ff166106c5576040517f08c379a00000000000000000000000000000000000000000000000000000000081526004016106bc906133a6565b60405180910390fd5b816106f48260030160009054906101000a900473ffffffffffffffffffffffffffffffffffffffff168561048d565b1015610735576040517f08c379a000000000000000000000000000000000000000000000000000000000815260040161072c90613412565b60405180910390fd5b60008282600401546107479190613461565b90506000606483600501548361075d9190613461565b61076791906134d2565b9050600081346107779190613503565b90506107b98460030160009054906101000a900473ffffffffffffffffffffffffffffffffffffffff163388886040518060200160405280600081525061176f565b60006107e98560030160009054906101000a900473ffffffffffffffffffffffffffffffffffffffff168861048d565b0361080c5760008460060160006101000a81548160ff0219169083151502179055505b8360030160009054906101000a900473ffffffffffffffffffffffffffffffffffffffff1673ffffffffffffffffffffffffffffffffffffffff166108fc839081150290604051600060405180830381858888f19350505050158015610876573d6000803e3d6000fd5b5061087f610c6f565b73ffffffffffffffffffffffffffffffffffffffff166108fc829081150290604051600060405180830381858888f193505050501580156108c4573d6000803e3d6000fd5b50600660003373ffffffffffffffffffffffffffffffffffffffff1673ffffffffffffffffffffffffffffffffffffffff1681526020019081526020016000208690806001815401808255809150506001900390600052602060002001600090919091909150558360030160009054906101000a900473ffffffffffffffffffffffffffffffffffffffff1673ffffffffffffffffffffffffffffffffffffffff163373ffffffffffffffffffffffffffffffffffffffff16877f6df4ffda30909c98dd5f5f6f4c356135eafad3f7bb9690f154d78078bb359b4187600401546040516109b19190612644565b60405180910390a4505050505050565b60006109cb61187a565b90508073ffffffffffffffffffffffffffffffffffffffff168673ffffffffffffffffffffffffffffffffffffffff1614158015610a105750610a0e8682611192565b155b15610a545780866040517fe237d922000000000000000000000000000000000000000000000000000000008152600401610a4b929190613537565b60405180910390fd5b610a618686868686611882565b505050505050565b610a7161197a565b600047905060008111610ab9576040517f08c379a0000000000000000000000000000000000000000000000000000000008152600401610ab0906135d2565b60405180910390fd5b610ac1610c6f565b73ffffffffffffffffffffffffffffffffffffffff166108fc829081150290604051600060405180830381858888f19350505050158015610b06573d6000803e3d6000fd5b5050565b60608151835114610b5657815183516040517f5b059991000000000000000000000000000000000000000000000000000000008152600401610b4d9291906135f2565b60405180910390fd5b6000835167ffffffffffffffff811115610b7357610b7261283e565b5b604051908082528060200260200182016040528015610ba15781602001602082028036833780820191505090505b50905060005b8451811015610c0e57610bde610bc68287611a0190919063ffffffff16565b610bd98387611a1590919063ffffffff16565b61048d565b828281518110610bf157610bf061361b565b5b60200260200101818152505080610c079061364a565b9050610ba7565b508091505092915050565b662386f26fc1000081565b610c2c61197a565b610c366000611a29565b565b60045481565b60066020528160005260406000208181548110610c5a57600080fd5b90600052602060002001600091509150505481565b6000600360009054906101000a900473ffffffffffffffffffffffffffffffffffffffff16905090565b6005602052806000526040600020600091509050806000015490806001018054610cc290613329565b80601f0160208091040260200160405190810160405280929190818152602001828054610cee90613329565b8015610d3b5780601f10610d1057610100808354040283529160200191610d3b565b820191906000526020600020905b815481529060010190602001808311610d1e57829003601f168201915b505050505090806002018054610d5090613329565b80601f0160208091040260200160405190810160405280929190818152602001828054610d7c90613329565b8015610dc95780601f10610d9e57610100808354040283529160200191610dc9565b820191906000526020600020905b815481529060010190602001808311610dac57829003601f168201915b5050505050908060030160009054906101000a900473ffffffffffffffffffffffffffffffffffffffff16908060040154908060050154908060060160009054906101000a900460ff1690806007018054610e2390613329565b80601f0160208091040260200160405190810160405280929190818152602001828054610e4f90613329565b8015610e9c5780601f10610e7157610100808354040283529160200191610e9c565b820191906000526020600020905b815481529060010190602001808311610e7f57829003601f168201915b5050505050905088565b610eb8610eb161187a565b8383611aef565b5050565b6000865111610f00576040517f08c379a0000000000000000000000000000000000000000000000000000000008152600401610ef7906136de565b60405180910390fd5b6000855111610f44576040517f08c379a0000000000000000000000000000000000000000000000000000000008152600401610f3b9061374a565b60405180910390fd5b60008411610f87576040517f08c379a0000000000000000000000000000000000000000000000000000000008152600401610f7e906137b6565b60405180910390fd5b60008311610fca576040517f08c379a0000000000000000000000000000000000000000000000000000000008152600401610fc190613822565b60405180910390fd5b600060046000815480929190610fdf9061364a565b91905055905061100033828660405180602001604052806000815250611c5f565b6040518061010001604052808281526020018881526020018781526020013373ffffffffffffffffffffffffffffffffffffffff168152602001868152602001848152602001600115158152602001838152506005600083815260200190815260200160002060008201518160000155602082015181600101908161108591906139ee565b50604082015181600201908161109b91906139ee565b5060608201518160030160006101000a81548173ffffffffffffffffffffffffffffffffffffffff021916908373ffffffffffffffffffffffffffffffffffffffff1602179055506080820151816004015560a0820151816005015560c08201518160060160006101000a81548160ff02191690831515021790555060e082015181600701908161112c91906139ee565b509050503373ffffffffffffffffffffffffffffffffffffffff16817fe94f3c4278aab1f60e904673c722eb205e22bac723c1e2f0354748e11134226489898989898960405161118196959493929190613ac0565b60405180910390a350505050505050565b6000600160008473ffffffffffffffffffffffffffffffffffffffff1673ffffffffffffffffffffffffffffffffffffffff16815260200190815260200160002060008373ffffffffffffffffffffffffffffffffffffffff1673ffffffffffffffffffffffffffffffffffffffff16815260200190815260200160002060009054906101000a900460ff16905092915050565b60606000600660003373ffffffffffffffffffffffffffffffffffffffff1673ffffffffffffffffffffffffffffffffffffffff1681526020019081526020016000208054806020026020016040519081016040528092919081815260200182805480156112b357602002820191906000526020600020905b81548152602001906001019080831161129f575b505050505090506000815167ffffffffffffffff8111156112d7576112d661283e565b5b60405190808252806020026020018201604052801561131057816020015b6112fd6124f0565b8152602001906001900390816112f55790505b50905060005b82518110156115ce57600560008483815181106113365761133561361b565b5b60200260200101518152602001908152602001600020604051806101000160405290816000820154815260200160018201805461137290613329565b80601f016020809104026020016040519081016040528092919081815260200182805461139e90613329565b80156113eb5780601f106113c0576101008083540402835291602001916113eb565b820191906000526020600020905b8154815290600101906020018083116113ce57829003601f168201915b5050505050815260200160028201805461140490613329565b80601f016020809104026020016040519081016040528092919081815260200182805461143090613329565b801561147d5780601f106114525761010080835404028352916020019161147d565b820191906000526020600020905b81548152906001019060200180831161146057829003601f168201915b505050505081526020016003820160009054906101000a900473ffffffffffffffffffffffffffffffffffffffff1673ffffffffffffffffffffffffffffffffffffffff1673ffffffffffffffffffffffffffffffffffffffff16815260200160048201548152602001600582015481526020016006820160009054906101000a900460ff1615151515815260200160078201805461151b90613329565b80601f016020809104026020016040519081016040528092919081815260200182805461154790613329565b80156115945780601f1061156957610100808354040283529160200191611594565b820191906000526020600020905b81548152906001019060200180831161157757829003601f168201915b5050505050815250508282815181106115b0576115af61361b565b5b602002602001018190525080806115c69061364a565b915050611316565b50809250505090565b60006115e161187a565b90508073ffffffffffffffffffffffffffffffffffffffff168673ffffffffffffffffffffffffffffffffffffffff161415801561162657506116248682611192565b155b1561166a5780866040517fe237d922000000000000000000000000000000000000000000000000000000008152600401611661929190613537565b60405180910390fd5b611677868686868661176f565b505050505050565b61168761197a565b600073ffffffffffffffffffffffffffffffffffffffff168173ffffffffffffffffffffffffffffffffffffffff16036116f95760006040517f1e4fbdf70000000000000000000000000000000000000000000000000000000081526004016116f09190612d2f565b60405180910390fd5b61170281611a29565b50565b60007f01ffc9a7000000000000000000000000000000000000000000000000000000007bffffffffffffffffffffffffffffffffffffffffffffffffffffffff1916827bffffffffffffffffffffffffffffffffffffffffffffffffffffffff1916149050919050565b600073ffffffffffffffffffffffffffffffffffffffff168473ffffffffffffffffffffffffffffffffffffffff16036117e15760006040517f57f447ce0000000000000000000000000000000000000000000000000000000081526004016117d89190612d2f565b60405180910390fd5b600073ffffffffffffffffffffffffffffffffffffffff168573ffffffffffffffffffffffffffffffffffffffff16036118535760006040517f01a8351400000000000000000000000000000000000000000000000000000000815260040161184a9190612d2f565b60405180910390fd5b6000806118608585611cf8565b915091506118718787848487611d28565b50505050505050565b600033905090565b600073ffffffffffffffffffffffffffffffffffffffff168473ffffffffffffffffffffffffffffffffffffffff16036118f45760006040517f57f447ce0000000000000000000000000000000000000000000000000000000081526004016118eb9190612d2f565b60405180910390fd5b600073ffffffffffffffffffffffffffffffffffffffff168573ffffffffffffffffffffffffffffffffffffffff16036119665760006040517f01a8351400000000000000000000000000000000000000000000000000000000815260040161195d9190612d2f565b60405180910390fd5b6119738585858585611d28565b5050505050565b61198261187a565b73ffffffffffffffffffffffffffffffffffffffff166119a0610c6f565b73ffffffffffffffffffffffffffffffffffffffff16146119ff576119c361187a565b6040517f118cdaa70000000000000000000000000000000000000000000000000000000081526004016119f69190612d2f565b60405180910390fd5b565b600060208202602084010151905092915050565b600060208202602084010151905092915050565b6000600360009054906101000a900473ffffffffffffffffffffffffffffffffffffffff16905081600360006101000a81548173ffffffffffffffffffffffffffffffffffffffff021916908373ffffffffffffffffffffffffffffffffffffffff1602179055508173ffffffffffffffffffffffffffffffffffffffff168173ffffffffffffffffffffffffffffffffffffffff167f8be0079c531659141344cd1fd0a4f28419497f9722a3daafe3b4186f6b6457e060405160405180910390a35050565b600073ffffffffffffffffffffffffffffffffffffffff168273ffffffffffffffffffffffffffffffffffffffff1603611b615760006040517fced3e100000000000000000000000000000000000000000000000000000000008152600401611b589190612d2f565b60405180910390fd5b80600160008573ffffffffffffffffffffffffffffffffffffffff1673ffffffffffffffffffffffffffffffffffffffff16815260200190815260200160002060008473ffffffffffffffffffffffffffffffffffffffff1673ffffffffffffffffffffffffffffffffffffffff16815260200190815260200160002060006101000a81548160ff0219169083151502179055508173ffffffffffffffffffffffffffffffffffffffff168373ffffffffffffffffffffffffffffffffffffffff167f17307eab39ab6107e8899845ad3d59bd9653f200f220920489ca2b5937696c3183604051611c5291906126ff565b60405180910390a3505050565b600073ffffffffffffffffffffffffffffffffffffffff168473ffffffffffffffffffffffffffffffffffffffff1603611cd15760006040517f57f447ce000000000000000000000000000000000000000000000000000000008152600401611cc89190612d2f565b60405180910390fd5b600080611cde8585611cf8565b91509150611cf0600087848487611d28565b505050505050565b60608060405191506001825283602083015260408201905060018152826020820152604081016040529250929050565b611d3485858585611dda565b600073ffffffffffffffffffffffffffffffffffffffff168473ffffffffffffffffffffffffffffffffffffffff1614611dd3576000611d7261187a565b90506001845103611dc2576000611d93600086611a1590919063ffffffff16565b90506000611dab600086611a1590919063ffffffff16565b9050611dbb838989858589612188565b5050611dd1565b611dd081878787878761233c565b5b505b5050505050565b8051825114611e2457815181516040517f5b059991000000000000000000000000000000000000000000000000000000008152600401611e1b9291906135f2565b60405180910390fd5b6000611e2e61187a565b905060005b8351811015612043576000611e518286611a1590919063ffffffff16565b90506000611e688386611a1590919063ffffffff16565b9050600073ffffffffffffffffffffffffffffffffffffffff168873ffffffffffffffffffffffffffffffffffffffff1614611f9557600080600084815260200190815260200160002060008a73ffffffffffffffffffffffffffffffffffffffff1673ffffffffffffffffffffffffffffffffffffffff16815260200190815260200160002054905081811015611f3d57888183856040517f03dee4c5000000000000000000000000000000000000000000000000000000008152600401611f349493929190613b36565b60405180910390fd5b81810360008085815260200190815260200160002060008b73ffffffffffffffffffffffffffffffffffffffff1673ffffffffffffffffffffffffffffffffffffffff16815260200190815260200160002081905550505b600073ffffffffffffffffffffffffffffffffffffffff168773ffffffffffffffffffffffffffffffffffffffff1614612030578060008084815260200190815260200160002060008973ffffffffffffffffffffffffffffffffffffffff1673ffffffffffffffffffffffffffffffffffffffff16815260200190815260200160002060008282546120289190613b7b565b925050819055505b50508061203c9061364a565b9050611e33565b506001835103612102576000612063600085611a1590919063ffffffff16565b9050600061207b600085611a1590919063ffffffff16565b90508573ffffffffffffffffffffffffffffffffffffffff168773ffffffffffffffffffffffffffffffffffffffff168473ffffffffffffffffffffffffffffffffffffffff167fc3d58168c5ae7397731d063d5bbf3d657854427343f4c083240f7aacaa2d0f6285856040516120f39291906135f2565b60405180910390a45050612181565b8373ffffffffffffffffffffffffffffffffffffffff168573ffffffffffffffffffffffffffffffffffffffff168273ffffffffffffffffffffffffffffffffffffffff167f4a39dc06d4c0dbc64b70af90fd698a233a518aa5d07e595d983b8c0526c8f7fb8686604051612178929190613baf565b60405180910390a45b5050505050565b60008473ffffffffffffffffffffffffffffffffffffffff163b1115612334578373ffffffffffffffffffffffffffffffffffffffff1663f23a6e6187878686866040518663ffffffff1660e01b81526004016121e9959493929190613c3b565b6020604051808303816000875af192505050801561222557506040513d601f19601f820116820180604052508101906122229190613caa565b60015b6122a9573d8060008114612255576040519150601f19603f3d011682016040523d82523d6000602084013e61225a565b606091505b5060008151036122a157846040517f57f447ce0000000000000000000000000000000000000000000000000000000081526004016122989190612d2f565b60405180910390fd5b805181602001fd5b63f23a6e6160e01b7bffffffffffffffffffffffffffffffffffffffffffffffffffffffff1916817bffffffffffffffffffffffffffffffffffffffffffffffffffffffff19161461233257846040517f57f447ce0000000000000000000000000000000000000000000000000000000081526004016123299190612d2f565b60405180910390fd5b505b505050505050565b60008473ffffffffffffffffffffffffffffffffffffffff163b11156124e8578373ffffffffffffffffffffffffffffffffffffffff1663bc197c8187878686866040518663ffffffff1660e01b815260040161239d959493929190613cd7565b6020604051808303816000875af19250505080156123d957506040513d601f19601f820116820180604052508101906123d69190613caa565b60015b61245d573d8060008114612409576040519150601f19603f3d011682016040523d82523d6000602084013e61240e565b606091505b50600081510361245557846040517f57f447ce00000000000000000000000000000000000000000000000000000000815260040161244c9190612d2f565b60405180910390fd5b805181602001fd5b63bc197c8160e01b7bffffffffffffffffffffffffffffffffffffffffffffffffffffffff1916817bffffffffffffffffffffffffffffffffffffffffffffffffffffffff1916146124e657846040517f57f447ce0000000000000000000000000000000000000000000000000000000081526004016124dd9190612d2f565b60405180910390fd5b505b505050505050565b604051806101000160405280600081526020016060815260200160608152602001600073ffffffffffffffffffffffffffffffffffffffff1681526020016000815260200160008152602001600015158152602001606081525090565b6000604051905090565b600080fd5b600080fd5b600073ffffffffffffffffffffffffffffffffffffffff82169050919050565b600061258c82612561565b9050919050565b61259c81612581565b81146125a757600080fd5b50565b6000813590506125b981612593565b92915050565b6000819050919050565b6125d2816125bf565b81146125dd57600080fd5b50565b6000813590506125ef816125c9565b92915050565b6000806040838503121561260c5761260b612557565b5b600061261a858286016125aa565b925050602061262b858286016125e0565b9150509250929050565b61263e816125bf565b82525050565b60006020820190506126596000830184612635565b92915050565b60007fffffffff0000000000000000000000000000000000000000000000000000000082169050919050565b6126948161265f565b811461269f57600080fd5b50565b6000813590506126b18161268b565b92915050565b6000602082840312156126cd576126cc612557565b5b60006126db848285016126a2565b91505092915050565b60008115159050919050565b6126f9816126e4565b82525050565b600060208201905061271460008301846126f0565b92915050565b6000602082840312156127305761272f612557565b5b600061273e848285016125e0565b91505092915050565b600081519050919050565b600082825260208201905092915050565b60005b83811015612781578082015181840152602081019050612766565b60008484015250505050565b6000601f19601f8301169050919050565b60006127a982612747565b6127b38185612752565b93506127c3818560208601612763565b6127cc8161278d565b840191505092915050565b600060208201905081810360008301526127f1818461279e565b905092915050565b600080604083850312156128105761280f612557565b5b600061281e858286016125e0565b925050602061282f858286016125e0565b9150509250929050565b600080fd5b7f4e487b7100000000000000000000000000000000000000000000000000000000600052604160045260246000fd5b6128768261278d565b810181811067ffffffffffffffff821117156128955761289461283e565b5b80604052505050565b60006128a861254d565b90506128b4828261286d565b919050565b600067ffffffffffffffff8211156128d4576128d361283e565b5b602082029050602081019050919050565b600080fd5b60006128fd6128f8846128b9565b61289e565b905080838252602082019050602084028301858111156129205761291f6128e5565b5b835b81811015612949578061293588826125e0565b845260208401935050602081019050612922565b5050509392505050565b600082601f83011261296857612967612839565b5b81356129788482602086016128ea565b91505092915050565b600080fd5b600067ffffffffffffffff8211156129a1576129a061283e565b5b6129aa8261278d565b9050602081019050919050565b82818337600083830152505050565b60006129d96129d484612986565b61289e565b9050828152602081018484840111156129f5576129f4612981565b5b612a008482856129b7565b509392505050565b600082601f830112612a1d57612a1c612839565b5b8135612a2d8482602086016129c6565b91505092915050565b600080600080600060a08688031215612a5257612a51612557565b5b6000612a60888289016125aa565b9550506020612a71888289016125aa565b945050604086013567ffffffffffffffff811115612a9257612a9161255c565b5b612a9e88828901612953565b935050606086013567ffffffffffffffff811115612abf57612abe61255c565b5b612acb88828901612953565b925050608086013567ffffffffffffffff811115612aec57612aeb61255c565b5b612af888828901612a08565b9150509295509295909350565b600067ffffffffffffffff821115612b2057612b1f61283e565b5b602082029050602081019050919050565b6000612b44612b3f84612b05565b61289e565b90508083825260208201905060208402830185811115612b6757612b666128e5565b5b835b81811015612b905780612b7c88826125aa565b845260208401935050602081019050612b69565b5050509392505050565b600082601f830112612baf57612bae612839565b5b8135612bbf848260208601612b31565b91505092915050565b60008060408385031215612bdf57612bde612557565b5b600083013567ffffffffffffffff811115612bfd57612bfc61255c565b5b612c0985828601612b9a565b925050602083013567ffffffffffffffff811115612c2a57612c2961255c565b5b612c3685828601612953565b9150509250929050565b600081519050919050565b600082825260208201905092915050565b6000819050602082019050919050565b612c75816125bf565b82525050565b6000612c878383612c6c565b60208301905092915050565b6000602082019050919050565b6000612cab82612c40565b612cb58185612c4b565b9350612cc083612c5c565b8060005b83811015612cf1578151612cd88882612c7b565b9750612ce383612c93565b925050600181019050612cc4565b5085935050505092915050565b60006020820190508181036000830152612d188184612ca0565b905092915050565b612d2981612581565b82525050565b6000602082019050612d446000830184612d20565b92915050565b6000612d5582612561565b9050919050565b612d6581612d4a565b82525050565b600061010082019050612d81600083018b612635565b8181036020830152612d93818a61279e565b90508181036040830152612da7818961279e565b9050612db66060830188612d5c565b612dc36080830187612635565b612dd060a0830186612635565b612ddd60c08301856126f0565b81810360e0830152612def818461279e565b90509998505050505050505050565b612e07816126e4565b8114612e1257600080fd5b50565b600081359050612e2481612dfe565b92915050565b60008060408385031215612e4157612e40612557565b5b6000612e4f858286016125aa565b9250506020612e6085828601612e15565b9150509250929050565b600067ffffffffffffffff821115612e8557612e8461283e565b5b612e8e8261278d565b9050602081019050919050565b6000612eae612ea984612e6a565b61289e565b905082815260208101848484011115612eca57612ec9612981565b5b612ed58482856129b7565b509392505050565b600082601f830112612ef257612ef1612839565b5b8135612f02848260208601612e9b565b91505092915050565b60008060008060008060c08789031215612f2857612f27612557565b5b600087013567ffffffffffffffff811115612f4657612f4561255c565b5b612f5289828a01612edd565b965050602087013567ffffffffffffffff811115612f7357612f7261255c565b5b612f7f89828a01612edd565b9550506040612f9089828a016125e0565b9450506060612fa189828a016125e0565b9350506080612fb289828a016125e0565b92505060a087013567ffffffffffffffff811115612fd357612fd261255c565b5b612fdf89828a01612edd565b9150509295509295509295565b6000806040838503121561300357613002612557565b5b6000613011858286016125aa565b9250506020613022858286016125aa565b9150509250929050565b600081519050919050565b600082825260208201905092915050565b6000819050602082019050919050565b600082825260208201905092915050565b600061307482612747565b61307e8185613058565b935061308e818560208601612763565b6130978161278d565b840191505092915050565b6130ab81612d4a565b82525050565b6130ba816126e4565b82525050565b6000610100830160008301516130d96000860182612c6c565b50602083015184820360208601526130f18282613069565b9150506040830151848203604086015261310b8282613069565b915050606083015161312060608601826130a2565b5060808301516131336080860182612c6c565b5060a083015161314660a0860182612c6c565b5060c083015161315960c08601826130b1565b5060e083015184820360e08601526131718282613069565b9150508091505092915050565b600061318a83836130c0565b905092915050565b6000602082019050919050565b60006131aa8261302c565b6131b48185613037565b9350836020820285016131c685613048565b8060005b8581101561320257848403895281516131e3858261317e565b94506131ee83613192565b925060208a019950506001810190506131ca565b50829750879550505050505092915050565b6000602082019050818103600083015261322e818461319f565b905092915050565b600080600080600060a0868803121561325257613251612557565b5b6000613260888289016125aa565b9550506020613271888289016125aa565b9450506040613282888289016125e0565b9350506060613293888289016125e0565b925050608086013567ffffffffffffffff8111156132b4576132b361255c565b5b6132c088828901612a08565b9150509295509295909350565b6000602082840312156132e3576132e2612557565b5b60006132f1848285016125aa565b91505092915050565b7f4e487b7100000000000000000000000000000000000000000000000000000000600052602260045260246000fd5b6000600282049050600182168061334157607f821691505b602082108103613354576133536132fa565b5b50919050565b7f44657369676e206e6f7420617661696c61626c6520666f722073616c65000000600082015250565b6000613390601d83612752565b915061339b8261335a565b602082019050919050565b600060208201905081810360008301526133bf81613383565b9050919050565b7f4e6f7420656e6f7567682064657369676e7320617661696c61626c6500000000600082015250565b60006133fc601c83612752565b9150613407826133c6565b602082019050919050565b6000602082019050818103600083015261342b816133ef565b9050919050565b7f4e487b7100000000000000000000000000000000000000000000000000000000600052601160045260246000fd5b600061346c826125bf565b9150613477836125bf565b9250828202613485816125bf565b9150828204841483151761349c5761349b613432565b5b5092915050565b7f4e487b7100000000000000000000000000000000000000000000000000000000600052601260045260246000fd5b60006134dd826125bf565b91506134e8836125bf565b9250826134f8576134f76134a3565b5b828204905092915050565b600061350e826125bf565b9150613519836125bf565b925082820390508181111561353157613530613432565b5b92915050565b600060408201905061354c6000830185612d20565b6135596020830184612d20565b9392505050565b7f4e6f20457468657220617661696c61626c6520666f722077697468647261776160008201527f6c00000000000000000000000000000000000000000000000000000000000000602082015250565b60006135bc602183612752565b91506135c782613560565b604082019050919050565b600060208201905081810360008301526135eb816135af565b9050919050565b60006040820190506136076000830185612635565b6136146020830184612635565b9392505050565b7f4e487b7100000000000000000000000000000000000000000000000000000000600052603260045260246000fd5b6000613655826125bf565b91507fffffffffffffffffffffffffffffffffffffffffffffffffffffffffffffffff820361368757613686613432565b5b600182019050919050565b7f4e616d6520726571756972656400000000000000000000000000000000000000600082015250565b60006136c8600d83612752565b91506136d382613692565b602082019050919050565b600060208201905081810360008301526136f7816136bb565b9050919050565b7f43617465676f7279207265717569726564000000000000000000000000000000600082015250565b6000613734601183612752565b915061373f826136fe565b602082019050919050565b6000602082019050818103600083015261376381613727565b9050919050565b7f5072696365206d7573742062652067726561746572207468616e207a65726f00600082015250565b60006137a0601f83612752565b91506137ab8261376a565b602082019050919050565b600060208201905081810360008301526137cf81613793565b9050919050565b7f416d6f756e74206d7573742062652067726561746572207468616e207a65726f600082015250565b600061380c602083612752565b9150613817826137d6565b602082019050919050565b6000602082019050818103600083015261383b816137ff565b9050919050565b60008190508160005260206000209050919050565b60006020601f8301049050919050565b600082821b905092915050565b6000600883026138a47fffffffffffffffffffffffffffffffffffffffffffffffffffffffffffffffff82613867565b6138ae8683613867565b95508019841693508086168417925050509392505050565b6000819050919050565b60006138eb6138e66138e1846125bf565b6138c6565b6125bf565b9050919050565b6000819050919050565b613905836138d0565b613919613911826138f2565b848454613874565b825550505050565b600090565b61392e613921565b6139398184846138fc565b505050565b5b8181101561395d57613952600082613926565b60018101905061393f565b5050565b601f8211156139a25761397381613842565b61397c84613857565b8101602085101561398b578190505b61399f61399785613857565b83018261393e565b50505b505050565b600082821c905092915050565b60006139c5600019846008026139a7565b1980831691505092915050565b60006139de83836139b4565b9150826002028217905092915050565b6139f782612747565b67ffffffffffffffff811115613a1057613a0f61283e565b5b613a1a8254613329565b613a25828285613961565b600060209050601f831160018114613a585760008415613a46578287015190505b613a5085826139d2565b865550613ab8565b601f198416613a6686613842565b60005b82811015613a8e57848901518255600182019150602085019450602081019050613a69565b86831015613aab5784890151613aa7601f8916826139b4565b8355505b6001600288020188555050505b505050505050565b600060c0820190508181036000830152613ada818961279e565b90508181036020830152613aee818861279e565b9050613afd6040830187612635565b613b0a6060830186612635565b613b176080830185612635565b81810360a0830152613b29818461279e565b9050979650505050505050565b6000608082019050613b4b6000830187612d20565b613b586020830186612635565b613b656040830185612635565b613b726060830184612635565b95945050505050565b6000613b86826125bf565b9150613b91836125bf565b9250828201905080821115613ba957613ba8613432565b5b92915050565b60006040820190508181036000830152613bc98185612ca0565b90508181036020830152613bdd8184612ca0565b90509392505050565b600081519050919050565b600082825260208201905092915050565b6000613c0d82613be6565b613c178185613bf1565b9350613c27818560208601612763565b613c308161278d565b840191505092915050565b600060a082019050613c506000830188612d20565b613c5d6020830187612d20565b613c6a6040830186612635565b613c776060830185612635565b8181036080830152613c898184613c02565b90509695505050505050565b600081519050613ca48161268b565b92915050565b600060208284031215613cc057613cbf612557565b5b6000613cce84828501613c95565b91505092915050565b600060a082019050613cec6000830188612d20565b613cf96020830187612d20565b8181036040830152613d0b8186612ca0565b90508181036060830152613d1f8185612ca0565b90508181036080830152613d338184613c02565b9050969550505050505056fea2646970667358221220aed463bdaf86d6c09bb3dcc3d26dc5893a928bb6f9874e9037d01b8c20a5038964736f6c63430008140033",
  "linkReferences": {},
  "deployedLinkReferences": {}
}